{
  "_format": "hh-sol-artifact-1",
  "contractName": "Distribution",
  "sourceName": "contracts/Distribution.sol",
  "abi": [
    {
      "inputs": [
        {
          "internalType": "uint256",
          "name": "_startDate",
          "type": "uint256"
        }
      ],
      "stateMutability": "nonpayable",
      "type": "constructor"
    },
    {
      "anonymous": false,
      "inputs": [
        {
          "indexed": true,
          "internalType": "address",
          "name": "caller",
          "type": "address"
        },
        {
          "indexed": false,
          "internalType": "uint256",
          "name": "amount",
          "type": "uint256"
        },
        {
          "indexed": false,
          "internalType": "uint256",
          "name": "withdrawDate",
          "type": "uint256"
        }
      ],
      "name": "Withdraw",
      "type": "event"
    },
    {
      "inputs": [],
      "name": "OMHToken",
      "outputs": [
        {
          "internalType": "address",
          "name": "",
          "type": "address"
        }
      ],
      "stateMutability": "view",
      "type": "function"
    },
    {
      "inputs": [],
      "name": "admin1",
      "outputs": [
        {
          "internalType": "address",
          "name": "",
          "type": "address"
        }
      ],
      "stateMutability": "view",
      "type": "function"
    },
    {
      "inputs": [],
      "name": "admin2",
      "outputs": [
        {
          "internalType": "address",
          "name": "",
          "type": "address"
        }
      ],
      "stateMutability": "view",
      "type": "function"
    },
    {
      "inputs": [
        {
          "internalType": "address",
          "name": "_newAdmin1",
          "type": "address"
        }
      ],
      "name": "changeAdmin1",
      "outputs": [],
      "stateMutability": "nonpayable",
      "type": "function"
    },
    {
      "inputs": [
        {
          "internalType": "address",
          "name": "_newAdmin2",
          "type": "address"
        }
      ],
      "name": "changeAdmin2",
      "outputs": [],
      "stateMutability": "nonpayable",
      "type": "function"
    },
    {
      "inputs": [
        {
          "internalType": "address",
          "name": "_newDeployer",
          "type": "address"
        }
      ],
      "name": "changeDeployer",
      "outputs": [],
      "stateMutability": "nonpayable",
      "type": "function"
    },
    {
      "inputs": [
        {
          "internalType": "uint256",
          "name": "_newPeriod",
          "type": "uint256"
        }
      ],
      "name": "changePeriod",
      "outputs": [],
      "stateMutability": "nonpayable",
      "type": "function"
    },
    {
      "inputs": [
        {
          "internalType": "uint256",
          "name": "_newDate",
          "type": "uint256"
        }
      ],
      "name": "changeStartDate",
      "outputs": [],
      "stateMutability": "nonpayable",
      "type": "function"
    },
    {
      "inputs": [],
      "name": "deployer",
      "outputs": [
        {
          "internalType": "address",
          "name": "",
          "type": "address"
        }
      ],
      "stateMutability": "view",
      "type": "function"
    },
    {
      "inputs": [
        {
          "internalType": "address",
          "name": "_holder",
          "type": "address"
        }
      ],
      "name": "getWithdrawableStatus",
      "outputs": [
        {
          "internalType": "bool",
          "name": "",
          "type": "bool"
        }
      ],
      "stateMutability": "view",
      "type": "function"
    },
    {
      "inputs": [
        {
          "internalType": "address",
          "name": "_holder",
          "type": "address"
        }
      ],
      "name": "getWithdrawalAmount",
      "outputs": [
        {
          "internalType": "uint256",
          "name": "",
          "type": "uint256"
        },
        {
          "internalType": "uint256",
          "name": "",
          "type": "uint256"
        }
      ],
      "stateMutability": "view",
      "type": "function"
    },
    {
      "inputs": [
        {
          "internalType": "address",
          "name": "",
          "type": "address"
        }
      ],
      "name": "holders",
      "outputs": [
        {
          "internalType": "uint256",
          "name": "percent",
          "type": "uint256"
        },
        {
          "internalType": "uint256",
          "name": "startAfter",
          "type": "uint256"
        },
        {
          "internalType": "uint256",
          "name": "months",
          "type": "uint256"
        },
        {
          "internalType": "uint256",
          "name": "numOfTimes",
          "type": "uint256"
        },
        {
          "internalType": "uint256",
          "name": "numOfWithdraws",
          "type": "uint256"
        },
        {
          "internalType": "bool",
          "name": "status",
          "type": "bool"
        }
      ],
      "stateMutability": "view",
      "type": "function"
    },
    {
      "inputs": [
        {
          "internalType": "address",
          "name": "_user",
          "type": "address"
        }
      ],
      "name": "pause",
      "outputs": [],
      "stateMutability": "nonpayable",
      "type": "function"
    },
    {
      "inputs": [],
      "name": "periodInSecond",
      "outputs": [
        {
          "internalType": "uint256",
          "name": "",
          "type": "uint256"
        }
      ],
      "stateMutability": "view",
      "type": "function"
    },
    {
      "inputs": [
        {
          "internalType": "address",
          "name": "_user",
          "type": "address"
        },
        {
          "components": [
            {
              "internalType": "uint256",
              "name": "percent",
              "type": "uint256"
            },
            {
              "internalType": "uint256",
              "name": "startAfter",
              "type": "uint256"
            },
            {
              "internalType": "uint256",
              "name": "months",
              "type": "uint256"
            },
            {
              "internalType": "uint256",
              "name": "numOfTimes",
              "type": "uint256"
            },
            {
              "internalType": "uint256",
              "name": "numOfWithdraws",
              "type": "uint256"
            },
            {
              "internalType": "bool",
              "name": "status",
              "type": "bool"
            }
          ],
          "internalType": "struct Distribution.OMH",
          "name": "_newSet",
          "type": "tuple"
        }
      ],
      "name": "setHolders",
      "outputs": [],
      "stateMutability": "nonpayable",
      "type": "function"
    },
    {
      "inputs": [
        {
          "internalType": "address",
          "name": "_newToken",
          "type": "address"
        }
      ],
      "name": "setOMHToken",
      "outputs": [],
      "stateMutability": "nonpayable",
      "type": "function"
    },
    {
      "inputs": [
        {
          "internalType": "address",
          "name": "_user",
          "type": "address"
        }
      ],
      "name": "start",
      "outputs": [],
      "stateMutability": "nonpayable",
      "type": "function"
    },
    {
      "inputs": [],
      "name": "startDate",
      "outputs": [
        {
          "internalType": "uint256",
          "name": "",
          "type": "uint256"
        }
      ],
      "stateMutability": "view",
      "type": "function"
    },
    {
      "inputs": [],
      "name": "withdraw",
      "outputs": [],
      "stateMutability": "nonpayable",
      "type": "function"
    }
  ],
  "bytecode": "0x6080604052600180546001600160a01b031990811673f98e4c178eed9313ce0856cf775ce950c08d6f39179091556002805490911673d6f6c0c0270f1001fbd0583ca40cc4b7a40529b0179055622819bd60055534801561005f57600080fd5b5060405161112a38038061112a83398101604081905261007e91610098565b600455600380546001600160a01b031916331790556100b1565b6000602082840312156100aa57600080fd5b5051919050565b61106a806100c06000396000f3fe608060405234801561001057600080fd5b50600436106101205760003560e01c80635c4b3a8c116100ad578063dd0b281e11610071578063dd0b281e146102e0578063defdfae6146102f3578063e21ef62614610306578063f0fd116014610319578063fe91cee71461032c57600080fd5b80635c4b3a8c1461028b57806376a67a51146102945780637bb5a325146102a7578063a4bf1361146102ba578063d5f39488146102cd57600080fd5b8063115976c4116100f4578063115976c4146101c057806318a5bbdc146101d35780633ccfd60b14610248578063539ae2531461025057806356582bf91461026357600080fd5b8062739f2a1461012557806301aba0061461013a57806306a8f8a21461017e5780630b97bc86146101a9575b600080fd5b610138610133366004610daa565b61033f565b005b610169610148366004610ddf565b6001600160a01b031660009081526006602052604090206005015460ff1690565b60405190151581526020015b60405180910390f35b600254610191906001600160a01b031681565b6040516001600160a01b039091168152602001610175565b6101b260045481565b604051908152602001610175565b600154610191906001600160a01b031681565b6102196101e1366004610ddf565b600660205260009081526040902080546001820154600283015460038401546004850154600590950154939492939192909160ff1686565b6040805196875260208701959095529385019290925260608401526080830152151560a082015260c001610175565b610138610377565b61013861025e366004610ddf565b610525565b610276610271366004610ddf565b610571565b60408051928352602083019190915201610175565b6101b260055481565b6101386102a2366004610ddf565b610766565b6101386102b5366004610e16565b6107ef565b6101386102c8366004610daa565b610888565b600354610191906001600160a01b031681565b6101386102ee366004610ddf565b6108b7565b610138610301366004610ddf565b610943565b610138610314366004610ddf565b61098f565b610138610327366004610ddf565b610a02565b600054610191906001600160a01b031681565b6003546001600160a01b031633146103725760405162461bcd60e51b815260040161036990610ec9565b60405180910390fd5b600455565b336000908152600660205260409020546103c45760405162461bcd60e51b815260206004820152600e60248201526d34b73b30b634b2103437b63232b960911b6044820152606401610369565b3360009081526006602052604090206005015460ff1615156001146104235760405162461bcd60e51b815260206004820152601560248201527463616c6c65722063616e277420776974686472617760581b6044820152606401610369565b60008061042f33610571565b91509150600082116104a95760405162461bcd60e51b815260206004820152603860248201527f6e6f742074696d6520746f207769746864726177206f722063616c6c6572206860448201527f617320616c726561647920616c6c2077697468647261776e00000000000000006064820152608401610369565b6000546104c0906001600160a01b03163383610a75565b33600090815260066020526040812060040180548492906104e2908490610f0f565b90915550506040805182815242602082015233917ff279e6a1f5e320cca91135676d9cb6e44ca8a08c0b88342bcdb1144f6511b568910160405180910390a25050565b6003546001600160a01b0316331461054f5760405162461bcd60e51b815260040161036990610ec9565b600080546001600160a01b0319166001600160a01b0392909216919091179055565b6001600160a01b0381166000908152600660209081526040808320815160c081018352815480825260018301549482019490945260028201549281019290925260038101546060830152600481015460808301526005015460ff16151560a0820152829115806105e957508060600151816080015110155b156105fa5750600093849350915050565b608081015160408201516001916000916106149190610f27565b83602001516106239190610f0f565b6005546106309190610f27565b60045461063d9190610f0f565b90508042101561065557506000958695509350505050565b60408301516005546106678342610f46565b6106719190610f5d565b61067b9190610f5d565b6106859083610f0f565b91508260800151836060015161069b9190610f46565b8211156106b957826080015183606001516106b69190610f46565b91505b6000620f424083856000015160008054906101000a90046001600160a01b03166001600160a01b03166318160ddd6040518163ffffffff1660e01b8152600401602060405180830381865afa158015610716573d6000803e3d6000fd5b505050506040513d601f19601f8201168201806040525081019061073a9190610f7f565b6107449190610f27565b61074e9190610f27565b6107589190610f5d565b929792965091945050505050565b6001546001600160a01b031633148061078957506002546001600160a01b031633145b6107cb5760405162461bcd60e51b815260206004820152601360248201527231b0b63632b91034b9903737ba1030b236b4b760691b6044820152606401610369565b6001600160a01b03166000908152600660205260409020600501805460ff19169055565b6003546001600160a01b031633146108195760405162461bcd60e51b815260040161036990610ec9565b61082281610acc565b6001600160a01b039290921660009081526006602090815260409182902084518155908401516001820155908301516002820155606083015160038201556080830151600482015560a0909201516005909201805460ff19169215159290921790915550565b6003546001600160a01b031633146108b25760405162461bcd60e51b815260040161036990610ec9565b600555565b6001546001600160a01b03163314806108da57506002546001600160a01b031633145b61091c5760405162461bcd60e51b815260206004820152601360248201527231b0b63632b91034b9903737ba1030b236b4b760691b6044820152606401610369565b6001600160a01b03166000908152600660205260409020600501805460ff19166001179055565b6003546001600160a01b0316331461096d5760405162461bcd60e51b815260040161036990610ec9565b600380546001600160a01b0319166001600160a01b0392909216919091179055565b6002546001600160a01b031633146109e05760405162461bcd60e51b815260206004820152601460248201527331b0b63632b91034b9903737ba1030b236b4b71960611b6044820152606401610369565b600280546001600160a01b0319166001600160a01b0392909216919091179055565b6001546001600160a01b03163314610a535760405162461bcd60e51b815260206004820152601460248201527363616c6c6572206973206e6f742061646d696e3160601b6044820152606401610369565b600180546001600160a01b0319166001600160a01b0392909216919091179055565b604080516001600160a01b038416602482015260448082018490528251808303909101815260649091019091526020810180516001600160e01b031663a9059cbb60e01b179052610ac7908490610b55565b505050565b610b076040518060c0016040528060008152602001600081526020016000815260200160008152602001600081526020016000151581525090565b6040518060c0016040528083600001518152602001836020015181526020018360400151815260200183606001518152602001836080015181526020018360a0015115158152509050919050565b6000610baa826040518060400160405280602081526020017f5361666545524332303a206c6f772d6c6576656c2063616c6c206661696c6564815250856001600160a01b0316610c279092919063ffffffff16565b805190915015610ac75780806020019051810190610bc89190610f98565b610ac75760405162461bcd60e51b815260206004820152602a60248201527f5361666545524332303a204552433230206f7065726174696f6e20646964206e6044820152691bdd081cdd58d8d9595960b21b6064820152608401610369565b6060610c368484600085610c40565b90505b9392505050565b606082471015610ca15760405162461bcd60e51b815260206004820152602660248201527f416464726573733a20696e73756666696369656e742062616c616e636520666f6044820152651c8818d85b1b60d21b6064820152608401610369565b6001600160a01b0385163b610cf85760405162461bcd60e51b815260206004820152601d60248201527f416464726573733a2063616c6c20746f206e6f6e2d636f6e74726163740000006044820152606401610369565b600080866001600160a01b03168587604051610d149190610fe5565b60006040518083038185875af1925050503d8060008114610d51576040519150601f19603f3d011682016040523d82523d6000602084013e610d56565b606091505b5091509150610d66828286610d71565b979650505050505050565b60608315610d80575081610c39565b825115610d905782518084602001fd5b8160405162461bcd60e51b81526004016103699190611001565b600060208284031215610dbc57600080fd5b5035919050565b80356001600160a01b0381168114610dda57600080fd5b919050565b600060208284031215610df157600080fd5b610c3982610dc3565b8015158114610e0857600080fd5b50565b8035610dda81610dfa565b60008082840360e0811215610e2a57600080fd5b610e3384610dc3565b925060c0601f1982011215610e4757600080fd5b5060405160c0810181811067ffffffffffffffff82111715610e7957634e487b7160e01b600052604160045260246000fd5b80604052506020840135815260408401356020820152606084013560408201526080840135606082015260a08401356080820152610eb960c08501610e0b565b60a0820152809150509250929050565b60208082526016908201527531b0b63632b91034b9903737ba103232b83637bcb2b960511b604082015260600190565b634e487b7160e01b600052601160045260246000fd5b60008219821115610f2257610f22610ef9565b500190565b6000816000190483118215151615610f4157610f41610ef9565b500290565b600082821015610f5857610f58610ef9565b500390565b600082610f7a57634e487b7160e01b600052601260045260246000fd5b500490565b600060208284031215610f9157600080fd5b5051919050565b600060208284031215610faa57600080fd5b8151610c3981610dfa565b60005b83811015610fd0578181015183820152602001610fb8565b83811115610fdf576000848401525b50505050565b60008251610ff7818460208701610fb5565b9190910192915050565b6020815260008251806020840152611020816040850160208701610fb5565b601f01601f1916919091016040019291505056fea264697066735822122029339c18fd16ee5476d327efdbe70ca78f41d6060ce6b59adae9deae251e37c264736f6c634300080d0033",
  "linkReferences": {},
  "deployedLinkReferences": {}
}