{
    "_format": "hh-sol-artifact-1",
    "contractName": "OMHERC20",
    "sourceName": "contracts/OMHERC20.sol",
    "abi": [
        {
            "inputs": [],
            "stateMutability": "nonpayable",
            "type": "constructor"
        },
        {
            "anonymous": false,
            "inputs": [
                {
                    "indexed": true,
                    "internalType": "address",
                    "name": "owner",
                    "type": "address"
                },
                {
                    "indexed": true,
                    "internalType": "address",
                    "name": "spender",
                    "type": "address"
                },
                {
                    "indexed": false,
                    "internalType": "uint256",
                    "name": "value",
                    "type": "uint256"
                }
            ],
            "name": "Approval",
            "type": "event"
        },
        {
            "anonymous": false,
            "inputs": [
                {
                    "indexed": true,
                    "internalType": "address",
                    "name": "previousOwner",
                    "type": "address"
                },
                {
                    "indexed": true,
                    "internalType": "address",
                    "name": "newOwner",
                    "type": "address"
                }
            ],
            "name": "OwnershipTransferred",
            "type": "event"
        },
        {
            "anonymous": false,
            "inputs": [
                {
                    "indexed": true,
                    "internalType": "address",
                    "name": "from",
                    "type": "address"
                },
                {
                    "indexed": true,
                    "internalType": "address",
                    "name": "to",
                    "type": "address"
                },
                {
                    "indexed": false,
                    "internalType": "uint256",
                    "name": "value",
                    "type": "uint256"
                }
            ],
            "name": "Transfer",
            "type": "event"
        },
        {
            "inputs": [],
            "name": "FEEDOMINATOR",
            "outputs": [
                {
                    "internalType": "uint256",
                    "name": "",
                    "type": "uint256"
                }
            ],
            "stateMutability": "view",
            "type": "function"
        },
        {
            "inputs": [
                {
                    "internalType": "address",
                    "name": "owner",
                    "type": "address"
                },
                {
                    "internalType": "address",
                    "name": "spender",
                    "type": "address"
                }
            ],
            "name": "allowance",
            "outputs": [
                {
                    "internalType": "uint256",
                    "name": "",
                    "type": "uint256"
                }
            ],
            "stateMutability": "view",
            "type": "function"
        },
        {
            "inputs": [
                {
                    "internalType": "address",
                    "name": "spender",
                    "type": "address"
                },
                {
                    "internalType": "uint256",
                    "name": "amount",
                    "type": "uint256"
                }
            ],
            "name": "approve",
            "outputs": [
                {
                    "internalType": "bool",
                    "name": "",
                    "type": "bool"
                }
            ],
            "stateMutability": "nonpayable",
            "type": "function"
        },
        {
            "inputs": [
                {
                    "internalType": "address",
                    "name": "account",
                    "type": "address"
                }
            ],
            "name": "balanceOf",
            "outputs": [
                {
                    "internalType": "uint256",
                    "name": "",
                    "type": "uint256"
                }
            ],
            "stateMutability": "view",
            "type": "function"
        },
        {
            "inputs": [],
            "name": "burnFee",
            "outputs": [
                {
                    "internalType": "uint32",
                    "name": "",
                    "type": "uint32"
                }
            ],
            "stateMutability": "view",
            "type": "function"
        },
        {
            "inputs": [
                {
                    "internalType": "uint256",
                    "name": "_amount",
                    "type": "uint256"
                },
                {
                    "internalType": "uint32",
                    "name": "_fee",
                    "type": "uint32"
                }
            ],
            "name": "calculateTokenFee",
            "outputs": [
                {
                    "internalType": "uint256",
                    "name": "feeAmount",
                    "type": "uint256"
                }
            ],
            "stateMutability": "pure",
            "type": "function"
        },
        {
            "inputs": [],
            "name": "decimals",
            "outputs": [
                {
                    "internalType": "uint8",
                    "name": "",
                    "type": "uint8"
                }
            ],
            "stateMutability": "view",
            "type": "function"
        },
        {
            "inputs": [
                {
                    "internalType": "address",
                    "name": "spender",
                    "type": "address"
                },
                {
                    "internalType": "uint256",
                    "name": "subtractedValue",
                    "type": "uint256"
                }
            ],
            "name": "decreaseAllowance",
            "outputs": [
                {
                    "internalType": "bool",
                    "name": "",
                    "type": "bool"
                }
            ],
            "stateMutability": "nonpayable",
            "type": "function"
        },
        {
            "inputs": [
                {
                    "internalType": "address",
                    "name": "_account",
                    "type": "address"
                },
                {
                    "internalType": "bool",
                    "name": "_value",
                    "type": "bool"
                }
            ],
            "name": "excludeFromBurn",
            "outputs": [],
            "stateMutability": "nonpayable",
            "type": "function"
        },
        {
            "inputs": [
                {
                    "internalType": "address",
                    "name": "spender",
                    "type": "address"
                },
                {
                    "internalType": "uint256",
                    "name": "addedValue",
                    "type": "uint256"
                }
            ],
            "name": "increaseAllowance",
            "outputs": [
                {
                    "internalType": "bool",
                    "name": "",
                    "type": "bool"
                }
            ],
            "stateMutability": "nonpayable",
            "type": "function"
        },
        {
            "inputs": [
                {
                    "internalType": "address",
                    "name": "",
                    "type": "address"
                }
            ],
            "name": "isExcludedFromBurn",
            "outputs": [
                {
                    "internalType": "bool",
                    "name": "",
                    "type": "bool"
                }
            ],
            "stateMutability": "view",
            "type": "function"
        },
        {
            "inputs": [],
            "name": "name",
            "outputs": [
                {
                    "internalType": "string",
                    "name": "",
                    "type": "string"
                }
            ],
            "stateMutability": "view",
            "type": "function"
        },
        {
            "inputs": [],
            "name": "owner",
            "outputs": [
                {
                    "internalType": "address",
                    "name": "",
                    "type": "address"
                }
            ],
            "stateMutability": "view",
            "type": "function"
        },
        {
            "inputs": [],
            "name": "renounceOwnership",
            "outputs": [],
            "stateMutability": "nonpayable",
            "type": "function"
        },
        {
            "inputs": [],
            "name": "symbol",
            "outputs": [
                {
                    "internalType": "string",
                    "name": "",
                    "type": "string"
                }
            ],
            "stateMutability": "view",
            "type": "function"
        },
        {
            "inputs": [],
            "name": "totalSupply",
            "outputs": [
                {
                    "internalType": "uint256",
                    "name": "",
                    "type": "uint256"
                }
            ],
            "stateMutability": "view",
            "type": "function"
        },
        {
            "inputs": [
                {
                    "internalType": "address",
                    "name": "to",
                    "type": "address"
                },
                {
                    "internalType": "uint256",
                    "name": "amount",
                    "type": "uint256"
                }
            ],
            "name": "transfer",
            "outputs": [
                {
                    "internalType": "bool",
                    "name": "",
                    "type": "bool"
                }
            ],
            "stateMutability": "nonpayable",
            "type": "function"
        },
        {
            "inputs": [
                {
                    "internalType": "address",
                    "name": "from",
                    "type": "address"
                },
                {
                    "internalType": "address",
                    "name": "to",
                    "type": "address"
                },
                {
                    "internalType": "uint256",
                    "name": "amount",
                    "type": "uint256"
                }
            ],
            "name": "transferFrom",
            "outputs": [
                {
                    "internalType": "bool",
                    "name": "",
                    "type": "bool"
                }
            ],
            "stateMutability": "nonpayable",
            "type": "function"
        },
        {
            "inputs": [
                {
                    "internalType": "address",
                    "name": "_newOwner",
                    "type": "address"
                }
            ],
            "name": "transferOwnership",
            "outputs": [],
            "stateMutability": "nonpayable",
            "type": "function"
        }
    ],
    "bytecode": "0x60806040526005805463ffffffff60a01b1916601960a31b1790553480156200002757600080fd5b50604051806040016040528060098152602001684f4d5645524954415360b81b8152506040518060400160405280600381526020016209e9a960eb1b81525081600390805190602001906200007e92919062000227565b5080516200009490600490602084019062000227565b505050620000b1620000ab620000e960201b60201c565b620000ed565b620000c9336b36ee12069cd8840b680000006200013f565b336000908152600660205260409020805460ff1916600117905562000330565b3390565b600580546001600160a01b038381166001600160a01b0319831681179093556040519116919082907f8be0079c531659141344cd1fd0a4f28419497f9722a3daafe3b4186f6b6457e090600090a35050565b6001600160a01b0382166200019a5760405162461bcd60e51b815260206004820152601f60248201527f45524332303a206d696e7420746f20746865207a65726f206164647265737300604482015260640160405180910390fd5b8060026000828254620001ae9190620002cd565b90915550506001600160a01b03821660009081526020819052604081208054839290620001dd908490620002cd565b90915550506040518181526001600160a01b038316906000907fddf252ad1be2c89b69c2b068fc378daa952ba7f163c4a11628f55a4df523b3ef9060200160405180910390a35050565b8280546200023590620002f4565b90600052602060002090601f016020900481019282620002595760008555620002a4565b82601f106200027457805160ff1916838001178555620002a4565b82800160010185558215620002a4579182015b82811115620002a457825182559160200191906001019062000287565b50620002b2929150620002b6565b5090565b5b80821115620002b25760008155600101620002b7565b60008219821115620002ef57634e487b7160e01b600052601160045260246000fd5b500190565b600181811c908216806200030957607f821691505b6020821081036200032a57634e487b7160e01b600052602260045260246000fd5b50919050565b610e8980620003406000396000f3fe608060405234801561001057600080fd5b50600436106101215760003560e01c806357a5a6fa116100ad578063a457c2d711610071578063a457c2d714610256578063a9059cbb14610269578063dd62ed3e1461027c578063f2fde38b1461028f578063fce589d8146102a257600080fd5b806357a5a6fa146101f957806370a0823114610202578063715018a61461022b5780638da5cb5b1461023357806395d89b411461024e57600080fd5b806323b872dd116100f457806323b872dd1461018e57806325dc6ee9146101a1578063313ce567146101c457806339509351146101d35780634661b9be146101e657600080fd5b806306fdde0314610126578063095ea7b31461014457806318160ddd14610167578063216c4d2b14610179575b600080fd5b61012e6102ce565b60405161013b9190610bcf565b60405180910390f35b610157610152366004610c40565b610360565b604051901515815260200161013b565b6002545b60405190815260200161013b565b61018c610187366004610c6a565b610378565b005b61015761019c366004610ca6565b6103d6565b6101576101af366004610ce2565b60066020526000908152604090205460ff1681565b6040516012815260200161013b565b6101576101e1366004610c40565b6103fa565b61016b6101f4366004610cfd565b61041c565b61016b61271081565b61016b610210366004610ce2565b6001600160a01b031660009081526020819052604090205490565b61018c610442565b6005546040516001600160a01b03909116815260200161013b565b61012e610478565b610157610264366004610c40565b610487565b610157610277366004610c40565b610502565b61016b61028a366004610d2b565b610510565b61018c61029d366004610ce2565b61053b565b6005546102b990600160a01b900463ffffffff1681565b60405163ffffffff909116815260200161013b565b6060600380546102dd90610d5e565b80601f016020809104026020016040519081016040528092919081815260200182805461030990610d5e565b80156103565780601f1061032b57610100808354040283529160200191610356565b820191906000526020600020905b81548152906001019060200180831161033957829003601f168201915b5050505050905090565b60003361036e818585610592565b5060019392505050565b6005546001600160a01b031633146103ab5760405162461bcd60e51b81526004016103a290610d98565b60405180910390fd5b6001600160a01b03919091166000908152600660205260409020805460ff1916911515919091179055565b6000336103e48582856106b6565b6103ef858585610730565b506001949350505050565b60003361036e81858561040d8383610510565b6104179190610de3565b610592565b600061271061043163ffffffff841685610dfb565b61043b9190610e1a565b9392505050565b6005546001600160a01b0316331461046c5760405162461bcd60e51b81526004016103a290610d98565b61047660006107c6565b565b6060600480546102dd90610d5e565b600033816104958286610510565b9050838110156104f55760405162461bcd60e51b815260206004820152602560248201527f45524332303a2064656372656173656420616c6c6f77616e63652062656c6f77604482015264207a65726f60d81b60648201526084016103a2565b6103ef8286868403610592565b60003361036e818585610730565b6001600160a01b03918216600090815260016020908152604080832093909416825291909152205490565b6005546001600160a01b031633146105655760405162461bcd60e51b81526004016103a290610d98565b61056e81610818565b6001600160a01b03166000908152600660205260409020805460ff19166001179055565b6001600160a01b0383166105f45760405162461bcd60e51b8152602060048201526024808201527f45524332303a20617070726f76652066726f6d20746865207a65726f206164646044820152637265737360e01b60648201526084016103a2565b6001600160a01b0382166106555760405162461bcd60e51b815260206004820152602260248201527f45524332303a20617070726f766520746f20746865207a65726f206164647265604482015261737360f01b60648201526084016103a2565b6001600160a01b0383811660008181526001602090815260408083209487168084529482529182902085905590518481527f8c5be1e5ebec7d5bd14f71427d1e84f3dd0314c0f7b2291e5b200ac8c7c3b925910160405180910390a3505050565b60006106c28484610510565b9050600019811461072a578181101561071d5760405162461bcd60e51b815260206004820152601d60248201527f45524332303a20696e73756666696369656e7420616c6c6f77616e636500000060448201526064016103a2565b61072a8484848403610592565b50505050565b6001600160a01b0383163b15801561076157506001600160a01b03831660009081526006602052604090205460ff16155b156107b657600061078482600560149054906101000a900463ffffffff1661041c565b905060006107928284610e3c565b905081156107a4576107a485836108b3565b6107af858583610a01565b5050505050565b6107c1838383610a01565b505050565b600580546001600160a01b038381166001600160a01b0319831681179093556040519116919082907f8be0079c531659141344cd1fd0a4f28419497f9722a3daafe3b4186f6b6457e090600090a35050565b6005546001600160a01b031633146108425760405162461bcd60e51b81526004016103a290610d98565b6001600160a01b0381166108a75760405162461bcd60e51b815260206004820152602660248201527f4f776e61626c653a206e6577206f776e657220697320746865207a65726f206160448201526564647265737360d01b60648201526084016103a2565b6108b0816107c6565b50565b6001600160a01b0382166109135760405162461bcd60e51b815260206004820152602160248201527f45524332303a206275726e2066726f6d20746865207a65726f206164647265736044820152607360f81b60648201526084016103a2565b6001600160a01b038216600090815260208190526040902054818110156109875760405162461bcd60e51b815260206004820152602260248201527f45524332303a206275726e20616d6f756e7420657863656564732062616c616e604482015261636560f01b60648201526084016103a2565b6001600160a01b03831660009081526020819052604081208383039055600280548492906109b6908490610e3c565b90915550506040518281526000906001600160a01b038516907fddf252ad1be2c89b69c2b068fc378daa952ba7f163c4a11628f55a4df523b3ef9060200160405180910390a3505050565b6001600160a01b038316610a655760405162461bcd60e51b815260206004820152602560248201527f45524332303a207472616e736665722066726f6d20746865207a65726f206164604482015264647265737360d81b60648201526084016103a2565b6001600160a01b038216610ac75760405162461bcd60e51b815260206004820152602360248201527f45524332303a207472616e7366657220746f20746865207a65726f206164647260448201526265737360e81b60648201526084016103a2565b6001600160a01b03831660009081526020819052604090205481811015610b3f5760405162461bcd60e51b815260206004820152602660248201527f45524332303a207472616e7366657220616d6f756e7420657863656564732062604482015265616c616e636560d01b60648201526084016103a2565b6001600160a01b03808516600090815260208190526040808220858503905591851681529081208054849290610b76908490610de3565b92505081905550826001600160a01b0316846001600160a01b03167fddf252ad1be2c89b69c2b068fc378daa952ba7f163c4a11628f55a4df523b3ef84604051610bc291815260200190565b60405180910390a361072a565b600060208083528351808285015260005b81811015610bfc57858101830151858201604001528201610be0565b81811115610c0e576000604083870101525b50601f01601f1916929092016040019392505050565b80356001600160a01b0381168114610c3b57600080fd5b919050565b60008060408385031215610c5357600080fd5b610c5c83610c24565b946020939093013593505050565b60008060408385031215610c7d57600080fd5b610c8683610c24565b915060208301358015158114610c9b57600080fd5b809150509250929050565b600080600060608486031215610cbb57600080fd5b610cc484610c24565b9250610cd260208501610c24565b9150604084013590509250925092565b600060208284031215610cf457600080fd5b61043b82610c24565b60008060408385031215610d1057600080fd5b82359150602083013563ffffffff81168114610c9b57600080fd5b60008060408385031215610d3e57600080fd5b610d4783610c24565b9150610d5560208401610c24565b90509250929050565b600181811c90821680610d7257607f821691505b602082108103610d9257634e487b7160e01b600052602260045260246000fd5b50919050565b6020808252818101527f4f776e61626c653a2063616c6c6572206973206e6f7420746865206f776e6572604082015260600190565b634e487b7160e01b600052601160045260246000fd5b60008219821115610df657610df6610dcd565b500190565b6000816000190483118215151615610e1557610e15610dcd565b500290565b600082610e3757634e487b7160e01b600052601260045260246000fd5b500490565b600082821015610e4e57610e4e610dcd565b50039056fea2646970667358221220e978d8c71cd418f7162fc0d5b67974d0b5af3d2920074afa7345fc5768d8660164736f6c634300080d0033",
    "linkReferences": {},
    "deployedLinkReferences": {}
}