{
    "_format": "hh-sol-artifact-1",
    "contractName": "Presale",
    "sourceName": "contracts/Presale.sol",
    "abi": [
        {
            "inputs": [
                {
                    "internalType": "address",
                    "name": "_tokenAddr",
                    "type": "address"
                },
                {
                    "internalType": "address",
                    "name": "_usdtAddr",
                    "type": "address"
                },
                {
                    "internalType": "address",
                    "name": "_priceFeedAddr",
                    "type": "address"
                }
            ],
            "stateMutability": "nonpayable",
            "type": "constructor"
        },
        {
            "anonymous": false,
            "inputs": [
                {
                    "indexed": true,
                    "internalType": "address",
                    "name": "caller",
                    "type": "address"
                },
                {
                    "indexed": false,
                    "internalType": "uint8",
                    "name": "paymentType",
                    "type": "uint8"
                },
                {
                    "indexed": false,
                    "internalType": "uint256",
                    "name": "paidAmount",
                    "type": "uint256"
                },
                {
                    "indexed": false,
                    "internalType": "uint256",
                    "name": "tokenAmount",
                    "type": "uint256"
                },
                {
                    "indexed": false,
                    "internalType": "uint256",
                    "name": "buyDate",
                    "type": "uint256"
                }
            ],
            "name": "Buy",
            "type": "event"
        },
        {
            "anonymous": false,
            "inputs": [
                {
                    "indexed": true,
                    "internalType": "address",
                    "name": "caller",
                    "type": "address"
                },
                {
                    "indexed": false,
                    "internalType": "uint256",
                    "name": "tokenAmount",
                    "type": "uint256"
                },
                {
                    "indexed": false,
                    "internalType": "uint256",
                    "name": "claimDate",
                    "type": "uint256"
                }
            ],
            "name": "Claim",
            "type": "event"
        },
        {
            "inputs": [],
            "name": "LOCKING_PERIOD",
            "outputs": [
                {
                    "internalType": "uint256",
                    "name": "",
                    "type": "uint256"
                }
            ],
            "stateMutability": "view",
            "type": "function"
        },
        {
            "inputs": [],
            "name": "ROUND1_MIN_AMOUNT",
            "outputs": [
                {
                    "internalType": "uint256",
                    "name": "",
                    "type": "uint256"
                }
            ],
            "stateMutability": "view",
            "type": "function"
        },
        {
            "inputs": [],
            "name": "ROUND2_MAX_AMOUNT",
            "outputs": [
                {
                    "internalType": "uint256",
                    "name": "",
                    "type": "uint256"
                }
            ],
            "stateMutability": "view",
            "type": "function"
        },
        {
            "inputs": [],
            "name": "ROUND2_MIN_AMOUNT",
            "outputs": [
                {
                    "internalType": "uint256",
                    "name": "",
                    "type": "uint256"
                }
            ],
            "stateMutability": "view",
            "type": "function"
        },
        {
            "inputs": [],
            "name": "_getTokenBalance",
            "outputs": [
                {
                    "internalType": "uint256",
                    "name": "",
                    "type": "uint256"
                }
            ],
            "stateMutability": "view",
            "type": "function"
        },
        {
            "inputs": [],
            "name": "burn",
            "outputs": [],
            "stateMutability": "nonpayable",
            "type": "function"
        },
        {
            "inputs": [
                {
                    "internalType": "uint256",
                    "name": "_amount",
                    "type": "uint256"
                }
            ],
            "name": "buyTokenWithMatic",
            "outputs": [],
            "stateMutability": "payable",
            "type": "function"
        },
        {
            "inputs": [
                {
                    "internalType": "uint256",
                    "name": "_amount",
                    "type": "uint256"
                },
                {
                    "internalType": "uint256",
                    "name": "_amountInUSDT",
                    "type": "uint256"
                }
            ],
            "name": "buyTokenWithUSDT",
            "outputs": [],
            "stateMutability": "nonpayable",
            "type": "function"
        },
        {
            "inputs": [],
            "name": "cfWallet1",
            "outputs": [
                {
                    "internalType": "address payable",
                    "name": "",
                    "type": "address"
                }
            ],
            "stateMutability": "view",
            "type": "function"
        },
        {
            "inputs": [],
            "name": "cfWallet2",
            "outputs": [
                {
                    "internalType": "address payable",
                    "name": "",
                    "type": "address"
                }
            ],
            "stateMutability": "view",
            "type": "function"
        },
        {
            "inputs": [],
            "name": "cfWallet3",
            "outputs": [
                {
                    "internalType": "address payable",
                    "name": "",
                    "type": "address"
                }
            ],
            "stateMutability": "view",
            "type": "function"
        },
        {
            "inputs": [],
            "name": "claimToken",
            "outputs": [],
            "stateMutability": "nonpayable",
            "type": "function"
        },
        {
            "inputs": [],
            "name": "deployer",
            "outputs": [
                {
                    "internalType": "address",
                    "name": "",
                    "type": "address"
                }
            ],
            "stateMutability": "view",
            "type": "function"
        },
        {
            "inputs": [],
            "name": "devWallet",
            "outputs": [
                {
                    "internalType": "address payable",
                    "name": "",
                    "type": "address"
                }
            ],
            "stateMutability": "view",
            "type": "function"
        },
        {
            "inputs": [
                {
                    "internalType": "uint256",
                    "name": "_amount",
                    "type": "uint256"
                }
            ],
            "name": "estimatedMaticAmount",
            "outputs": [
                {
                    "internalType": "uint256",
                    "name": "",
                    "type": "uint256"
                }
            ],
            "stateMutability": "view",
            "type": "function"
        },
        {
            "inputs": [
                {
                    "internalType": "uint256",
                    "name": "_amount",
                    "type": "uint256"
                }
            ],
            "name": "estimatedUSDTAmount",
            "outputs": [
                {
                    "internalType": "uint256",
                    "name": "",
                    "type": "uint256"
                }
            ],
            "stateMutability": "view",
            "type": "function"
        },
        {
            "inputs": [],
            "name": "getLatestPrice",
            "outputs": [
                {
                    "internalType": "int256",
                    "name": "",
                    "type": "int256"
                }
            ],
            "stateMutability": "view",
            "type": "function"
        },
        {
            "inputs": [],
            "name": "getSalePeriod",
            "outputs": [
                {
                    "internalType": "uint8",
                    "name": "",
                    "type": "uint8"
                }
            ],
            "stateMutability": "view",
            "type": "function"
        },
        {
            "inputs": [
                {
                    "internalType": "uint256",
                    "name": "_tokenAmount",
                    "type": "uint256"
                }
            ],
            "name": "getTokenPrice",
            "outputs": [
                {
                    "internalType": "uint256",
                    "name": "",
                    "type": "uint256"
                }
            ],
            "stateMutability": "view",
            "type": "function"
        },
        {
            "inputs": [
                {
                    "internalType": "address",
                    "name": "",
                    "type": "address"
                }
            ],
            "name": "lockedTokens",
            "outputs": [
                {
                    "internalType": "uint256",
                    "name": "amount",
                    "type": "uint256"
                },
                {
                    "internalType": "uint256",
                    "name": "endLockTimestamp",
                    "type": "uint256"
                }
            ],
            "stateMutability": "view",
            "type": "function"
        },
        {
            "inputs": [],
            "name": "lpWallet",
            "outputs": [
                {
                    "internalType": "address payable",
                    "name": "",
                    "type": "address"
                }
            ],
            "stateMutability": "view",
            "type": "function"
        },
        {
            "inputs": [],
            "name": "marketWallet",
            "outputs": [
                {
                    "internalType": "address payable",
                    "name": "",
                    "type": "address"
                }
            ],
            "stateMutability": "view",
            "type": "function"
        },
        {
            "inputs": [],
            "name": "privateEndDate",
            "outputs": [
                {
                    "internalType": "uint256",
                    "name": "",
                    "type": "uint256"
                }
            ],
            "stateMutability": "view",
            "type": "function"
        },
        {
            "inputs": [],
            "name": "privatePriceForRound1",
            "outputs": [
                {
                    "internalType": "uint256",
                    "name": "",
                    "type": "uint256"
                }
            ],
            "stateMutability": "view",
            "type": "function"
        },
        {
            "inputs": [],
            "name": "privatePriceForRound2",
            "outputs": [
                {
                    "internalType": "uint256",
                    "name": "",
                    "type": "uint256"
                }
            ],
            "stateMutability": "view",
            "type": "function"
        },
        {
            "inputs": [],
            "name": "seedEndDate",
            "outputs": [
                {
                    "internalType": "uint256",
                    "name": "",
                    "type": "uint256"
                }
            ],
            "stateMutability": "view",
            "type": "function"
        },
        {
            "inputs": [],
            "name": "seedPriceForRound1",
            "outputs": [
                {
                    "internalType": "uint256",
                    "name": "",
                    "type": "uint256"
                }
            ],
            "stateMutability": "view",
            "type": "function"
        },
        {
            "inputs": [],
            "name": "seedPriceForRound2",
            "outputs": [
                {
                    "internalType": "uint256",
                    "name": "",
                    "type": "uint256"
                }
            ],
            "stateMutability": "view",
            "type": "function"
        },
        {
            "inputs": [],
            "name": "seedStartDate",
            "outputs": [
                {
                    "internalType": "uint256",
                    "name": "",
                    "type": "uint256"
                }
            ],
            "stateMutability": "view",
            "type": "function"
        },
        {
            "inputs": [
                {
                    "internalType": "address payable",
                    "name": "_newAddress",
                    "type": "address"
                }
            ],
            "name": "setCFWallet1",
            "outputs": [],
            "stateMutability": "nonpayable",
            "type": "function"
        },
        {
            "inputs": [
                {
                    "internalType": "address payable",
                    "name": "_newAddress",
                    "type": "address"
                }
            ],
            "name": "setCFWallet2",
            "outputs": [],
            "stateMutability": "nonpayable",
            "type": "function"
        },
        {
            "inputs": [
                {
                    "internalType": "address payable",
                    "name": "_newAddress",
                    "type": "address"
                }
            ],
            "name": "setCFWallet3",
            "outputs": [],
            "stateMutability": "nonpayable",
            "type": "function"
        },
        {
            "inputs": [
                {
                    "internalType": "address",
                    "name": "_newAddress",
                    "type": "address"
                }
            ],
            "name": "setDeployer",
            "outputs": [],
            "stateMutability": "nonpayable",
            "type": "function"
        },
        {
            "inputs": [
                {
                    "internalType": "address payable",
                    "name": "_newAddress",
                    "type": "address"
                }
            ],
            "name": "setDevWallet",
            "outputs": [],
            "stateMutability": "nonpayable",
            "type": "function"
        },
        {
            "inputs": [
                {
                    "internalType": "address payable",
                    "name": "_newAddress",
                    "type": "address"
                }
            ],
            "name": "setLPWallet",
            "outputs": [],
            "stateMutability": "nonpayable",
            "type": "function"
        },
        {
            "inputs": [
                {
                    "internalType": "address payable",
                    "name": "_newAddress",
                    "type": "address"
                }
            ],
            "name": "setMarketWallet",
            "outputs": [],
            "stateMutability": "nonpayable",
            "type": "function"
        },
        {
            "inputs": [
                {
                    "internalType": "uint256",
                    "name": "_newDate",
                    "type": "uint256"
                }
            ],
            "name": "setPrivateEndDate",
            "outputs": [],
            "stateMutability": "nonpayable",
            "type": "function"
        },
        {
            "inputs": [
                {
                    "internalType": "uint256",
                    "name": "_newPrice",
                    "type": "uint256"
                }
            ],
            "name": "setPrivatePriceForRound1",
            "outputs": [],
            "stateMutability": "nonpayable",
            "type": "function"
        },
        {
            "inputs": [
                {
                    "internalType": "uint256",
                    "name": "_newPrice",
                    "type": "uint256"
                }
            ],
            "name": "setPrivatePriceForRound2",
            "outputs": [],
            "stateMutability": "nonpayable",
            "type": "function"
        },
        {
            "inputs": [
                {
                    "internalType": "uint256",
                    "name": "_newDate",
                    "type": "uint256"
                }
            ],
            "name": "setSeedEndDate",
            "outputs": [],
            "stateMutability": "nonpayable",
            "type": "function"
        },
        {
            "inputs": [
                {
                    "internalType": "uint256",
                    "name": "_newPrice",
                    "type": "uint256"
                }
            ],
            "name": "setSeedPriceForRound1",
            "outputs": [],
            "stateMutability": "nonpayable",
            "type": "function"
        },
        {
            "inputs": [
                {
                    "internalType": "uint256",
                    "name": "_newPrice",
                    "type": "uint256"
                }
            ],
            "name": "setSeedPriceForRound2",
            "outputs": [],
            "stateMutability": "nonpayable",
            "type": "function"
        },
        {
            "inputs": [
                {
                    "internalType": "uint256",
                    "name": "_newDate",
                    "type": "uint256"
                }
            ],
            "name": "setSeedStartDate",
            "outputs": [],
            "stateMutability": "nonpayable",
            "type": "function"
        },
        {
            "inputs": [
                {
                    "internalType": "address",
                    "name": "_newToken",
                    "type": "address"
                }
            ],
            "name": "setTokenAddress",
            "outputs": [],
            "stateMutability": "nonpayable",
            "type": "function"
        },
        {
            "inputs": [
                {
                    "internalType": "address",
                    "name": "_newToken",
                    "type": "address"
                }
            ],
            "name": "setUSDTAddress",
            "outputs": [],
            "stateMutability": "nonpayable",
            "type": "function"
        },
        {
            "inputs": [],
            "name": "tokenAddr",
            "outputs": [
                {
                    "internalType": "contract IERC20",
                    "name": "",
                    "type": "address"
                }
            ],
            "stateMutability": "view",
            "type": "function"
        },
        {
            "inputs": [],
            "name": "totalSoldAmount",
            "outputs": [
                {
                    "internalType": "uint256",
                    "name": "",
                    "type": "uint256"
                }
            ],
            "stateMutability": "view",
            "type": "function"
        },
        {
            "inputs": [],
            "name": "usdtAddr",
            "outputs": [
                {
                    "internalType": "contract IERC20",
                    "name": "",
                    "type": "address"
                }
            ],
            "stateMutability": "view",
            "type": "function"
        },
        {
            "inputs": [],
            "name": "withdraw",
            "outputs": [],
            "stateMutability": "nonpayable",
            "type": "function"
        },
        {
            "stateMutability": "payable",
            "type": "receive"
        }
    ],
    "bytecode": "0x608060405262632ea0600555624c4b4060069081556281b320600755626acfc060085561271060095562989680600a556301312d00600b55600c556362804280600d556362fade00600e5563634b4980600f55601080546001600160a01b03199081167331db7dc50c4077aa065f5c296a766b1a6db56df21790915560118054821673b43b73b8a6e848ae82e689736e77d53e9ee0858d179055601280548216731b4942f4366794e77240a1ed935818b305c8477c17905560138054821673f98e4c178eed9313ce0856cf775ce950c08d6f3917905560148054821673d6f6c0c0270f1001fbd0583ca40cc4b7a40529b017905560158054909116736cf00e5e99e6707057a6471b2b4b803791d8f20b1790553480156200011f57600080fd5b506040516200265c3803806200265c8339810160408190526200014291620001af565b600380546001600160a01b039485166001600160a01b03199182161790915560048054938516938216939093179092556002805491909316908216179091556016805490911633179055620001f9565b80516001600160a01b0381168114620001aa57600080fd5b919050565b600080600060608486031215620001c557600080fd5b620001d08462000192565b9250620001e06020850162000192565b9150620001f06040850162000192565b90509250925092565b61245380620002096000396000f3fe6080604052600436106102b15760003560e01c80636bebb76011610175578063b2d07e84116100dc578063d5f3948811610095578063ee4493c21161006f578063ee4493c214610808578063f20fb5cd14610828578063f4de2ac514610848578063fb6161021461085e57600080fd5b8063d5f39488146107b2578063e2bf02cf146107d2578063e4440a86146107e857600080fd5b8063b2d07e84146106fd578063b79c74751461071d578063bd664c181461073d578063c078634a1461075d578063c457fb371461077d578063d12a039c1461079d57600080fd5b80638ea5220f1161012e5780638ea5220f1461065b578063962147351461067b5780639808c2a21461069b5780639bd7abdb146106b1578063a70089e5146106c7578063b2a2b722146106e757600080fd5b80636bebb760146105c4578063714e7054146105e45780637b82bd9c146105fa578063873177c31461061a57806387a55daf146106305780638e15f4731461064657600080fd5b80634451d89f116102195780635eb7413a116101d25780635eb7413a146104ef5780635fbe4d1d146105385780635fe383b114610558578063617d79401461056e5780636303516c1461058457806363074dec146105a457600080fd5b80634451d89f1461043e57806344df8e7014610453578063459a7e9f1461046857806353149f561461048857806354332266146104af57806355eba868146104cf57600080fd5b80631f53ac021161026b5780631f53ac02146103a057806326a4e8d2146103c05780632f213285146103e05780633ad1000d146103f65780633b0aacbc146104095780633ccfd60b1461042957600080fd5b8062231343146102bd57806305b4d1e8146102f05780630c77af6f146103285780631319e8cf1461034a5780631554e1ce1461036a57806319955ef91461038a57600080fd5b366102b857005b600080fd5b3480156102c957600080fd5b506102dd6102d836600461221a565b61087e565b6040519081526020015b60405180910390f35b3480156102fc57600080fd5b50601554610310906001600160a01b031681565b6040516001600160a01b0390911681526020016102e7565b34801561033457600080fd5b5061034861034336600461224b565b6108b8565b005b34801561035657600080fd5b5061034861036536600461221a565b610939565b34801561037657600080fd5b50600454610310906001600160a01b031681565b34801561039657600080fd5b506102dd60075481565b3480156103ac57600080fd5b506103486103bb36600461224b565b610968565b3480156103cc57600080fd5b506103486103db36600461224b565b6109e4565b3480156103ec57600080fd5b506102dd600e5481565b61034861040436600461221a565b610a30565b34801561041557600080fd5b5061034861042436600461224b565b610bb5565b34801561043557600080fd5b50610348610c2a565b34801561044a57600080fd5b5061034861152a565b34801561045f57600080fd5b506103486116f2565b34801561047457600080fd5b5061034861048336600461221a565b611839565b34801561049457600080fd5b5061049d611868565b60405160ff90911681526020016102e7565b3480156104bb57600080fd5b506103486104ca36600461224b565b6118ac565b3480156104db57600080fd5b506103486104ea36600461224b565b611928565b3480156104fb57600080fd5b5061052361050a36600461224b565b6001602081905260009182526040909120805491015482565b604080519283526020830191909152016102e7565b34801561054457600080fd5b50600354610310906001600160a01b031681565b34801561056457600080fd5b506102dd60055481565b34801561057a57600080fd5b506102dd60005481565b34801561059057600080fd5b50601054610310906001600160a01b031681565b3480156105b057600080fd5b506103486105bf36600461221a565b611974565b3480156105d057600080fd5b506103486105df36600461221a565b6119a3565b3480156105f057600080fd5b506102dd60085481565b34801561060657600080fd5b5061034861061536600461221a565b6119d2565b34801561062657600080fd5b506102dd60065481565b34801561063c57600080fd5b506102dd600d5481565b34801561065257600080fd5b506102dd611a01565b34801561066757600080fd5b50601154610310906001600160a01b031681565b34801561068757600080fd5b5061034861069636600461224b565b611a86565b3480156106a757600080fd5b506102dd600a5481565b3480156106bd57600080fd5b506102dd600f5481565b3480156106d357600080fd5b506103486106e236600461221a565b611ad2565b3480156106f357600080fd5b506102dd600c5481565b34801561070957600080fd5b5061034861071836600461224b565b611b01565b34801561072957600080fd5b50601454610310906001600160a01b031681565b34801561074957600080fd5b506102dd61075836600461221a565b611b7d565b34801561076957600080fd5b5061034861077836600461226f565b611bb3565b34801561078957600080fd5b506102dd61079836600461221a565b611e74565b3480156107a957600080fd5b506102dd611f5d565b3480156107be57600080fd5b50601654610310906001600160a01b031681565b3480156107de57600080fd5b506102dd60095481565b3480156107f457600080fd5b50601254610310906001600160a01b031681565b34801561081457600080fd5b50601354610310906001600160a01b031681565b34801561083457600080fd5b5061034861084336600461224b565b611fcf565b34801561085457600080fd5b506102dd600b5481565b34801561086a57600080fd5b5061034861087936600461221a565b61204b565b600080610889611a01565b9050600061089684611e74565b90506000826108a586846122a7565b6108af91906122c6565b95945050505050565b6015546001600160a01b031633146109175760405162461bcd60e51b815260206004820152601760248201527f63616c6c6572206973206e6f7420636657616c6c65743300000000000000000060448201526064015b60405180910390fd5b601580546001600160a01b0319166001600160a01b0392909216919091179055565b6016546001600160a01b031633146109635760405162461bcd60e51b815260040161090e906122e8565b600755565b6011546001600160a01b031633146109c25760405162461bcd60e51b815260206004820152601760248201527f63616c6c6572206973206e6f742064657657616c6c6574000000000000000000604482015260640161090e565b601180546001600160a01b0319166001600160a01b0392909216919091179055565b6016546001600160a01b03163314610a0e5760405162461bcd60e51b815260040161090e906122e8565b600380546001600160a01b0319166001600160a01b0392909216919091179055565b6000610a3a611868565b60ff1611610a825760405162461bcd60e51b8152602060048201526015602482015274139bdd081d985b1a59081cd85b19481c195c9a5bd9605a1b604482015260640161090e565b60003411610ac95760405162461bcd60e51b815260206004820152601460248201527356616c75652063616e6e6f74206265207a65726f60601b604482015260640161090e565b6000610ad3611a01565b90506000610ae083611e74565b905060008111610b285760405162461bcd60e51b8152602060048201526013602482015272496e76616c696420746f6b656e20707269636560681b604482015260640161090e565b81610b3384836122a7565b610b3d91906122c6565b341015610b5c5760405162461bcd60e51b815260040161090e90612318565b610b66833361207a565b604080516001815234602082015290810184905242606082015233907fe8f58e3faf4cfb9e9f5bb8a5bb97dc5c362e97b4665aec0f218f17c3c44a5b6e906080015b60405180910390a2505050565b6010546001600160a01b03163314610c085760405162461bcd60e51b815260206004820152601660248201527518d85b1b195c881a5cc81b9bdd081b1c15d85b1b195d60521b604482015260640161090e565b601080546001600160a01b0319166001600160a01b0392909216919091179055565b6013546001600160a01b0316331480610c4d57506014546001600160a01b031633145b80610c6257506015546001600160a01b031633145b610ca45760405162461bcd60e51b815260206004820152601360248201527231b0b63632b91034b9903737ba1030b236b4b760691b604482015260640161090e565b60006064610cb34760326122a7565b610cbd91906122c6565b905060006064610cce4760206122a7565b610cd891906122c6565b905060006103e8610cea4760376122a7565b610cf491906122c6565b905060006103e8610d064760376122a7565b610d1091906122c6565b90506000610d1f6064476122c6565b905060006064610d304760066122a7565b610d3a91906122c6565b90508515610d7e576010546040516001600160a01b039091169087156108fc029088906000818181858888f19350505050158015610d7c573d6000803e3d6000fd5b505b8415610dc0576011546040516001600160a01b039091169086156108fc029087906000818181858888f19350505050158015610dbe573d6000803e3d6000fd5b505b8315610e02576013546040516001600160a01b039091169085156108fc029086906000818181858888f19350505050158015610e00573d6000803e3d6000fd5b505b8215610e44576014546040516001600160a01b039091169084156108fc029085906000818181858888f19350505050158015610e42573d6000803e3d6000fd5b505b8115610e86576015546040516001600160a01b039091169083156108fc029084906000818181858888f19350505050158015610e84573d6000803e3d6000fd5b505b8015610ec8576012546040516001600160a01b039091169082156108fc029083906000818181858888f19350505050158015610ec6573d6000803e3d6000fd5b505b600480546040516370a0823160e01b815230928101929092526000916064916001600160a01b0316906370a0823190602401602060405180830381865afa158015610f17573d6000803e3d6000fd5b505050506040513d601f19601f82011682018060405250810190610f3b9190612344565b610f469060326122a7565b610f5091906122c6565b600480546040516370a0823160e01b815230928101929092529192506000916064916001600160a01b03909116906370a0823190602401602060405180830381865afa158015610fa4573d6000803e3d6000fd5b505050506040513d601f19601f82011682018060405250810190610fc89190612344565b610fd39060206122a7565b610fdd91906122c6565b600480546040516370a0823160e01b815230928101929092529192506000916103e8916001600160a01b03909116906370a0823190602401602060405180830381865afa158015611032573d6000803e3d6000fd5b505050506040513d601f19601f820116820180604052508101906110569190612344565b6110619060376122a7565b61106b91906122c6565b600480546040516370a0823160e01b815230928101929092529192506000916103e8916001600160a01b03909116906370a0823190602401602060405180830381865afa1580156110c0573d6000803e3d6000fd5b505050506040513d601f19601f820116820180604052508101906110e49190612344565b6110ef9060376122a7565b6110f991906122c6565b600480546040516370a0823160e01b815230928101929092529192506000916064916001600160a01b03909116906370a0823190602401602060405180830381865afa15801561114d573d6000803e3d6000fd5b505050506040513d601f19601f820116820180604052508101906111719190612344565b61117b91906122c6565b600480546040516370a0823160e01b815230928101929092529192506000916064916001600160a01b03909116906370a0823190602401602060405180830381865afa1580156111cf573d6000803e3d6000fd5b505050506040513d601f19601f820116820180604052508101906111f39190612344565b6111fe9060066122a7565b61120891906122c6565b9050851561128d576004805460105460405163a9059cbb60e01b81526001600160a01b039182169381019390935260248301899052169063a9059cbb906044016020604051808303816000875af1158015611267573d6000803e3d6000fd5b505050506040513d601f19601f8201168201806040525081019061128b919061235d565b505b8415611310576004805460115460405163a9059cbb60e01b81526001600160a01b039182169381019390935260248301889052169063a9059cbb906044016020604051808303816000875af11580156112ea573d6000803e3d6000fd5b505050506040513d601f19601f8201168201806040525081019061130e919061235d565b505b8315611393576004805460135460405163a9059cbb60e01b81526001600160a01b039182169381019390935260248301879052169063a9059cbb906044016020604051808303816000875af115801561136d573d6000803e3d6000fd5b505050506040513d601f19601f82011682018060405250810190611391919061235d565b505b8215611416576004805460145460405163a9059cbb60e01b81526001600160a01b039182169381019390935260248301869052169063a9059cbb906044016020604051808303816000875af11580156113f0573d6000803e3d6000fd5b505050506040513d601f19601f82011682018060405250810190611414919061235d565b505b8115611499576004805460155460405163a9059cbb60e01b81526001600160a01b039182169381019390935260248301859052169063a9059cbb906044016020604051808303816000875af1158015611473573d6000803e3d6000fd5b505050506040513d601f19601f82011682018060405250810190611497919061235d565b505b801561151c576004805460125460405163a9059cbb60e01b81526001600160a01b039182169381019390935260248301849052169063a9059cbb906044016020604051808303816000875af11580156114f6573d6000803e3d6000fd5b505050506040513d601f19601f8201168201806040525081019061151a919061235d565b505b505050505050505050505050565b336000908152600160208190526040909120015442101561159b5760405162461bcd60e51b815260206004820152602560248201527f4c6f636b20706572696f642836204d6f6e746873292069736e277420656e646560448201526419081e595d60da1b606482015260840161090e565b336000908152600160205260409020546115c75760405162461bcd60e51b815260040161090e90612318565b33600090815260016020526040902054806115e0611f5d565b10156116255760405162461bcd60e51b8152602060048201526014602482015273496e73756666696369656e742062616c616e636560601b604482015260640161090e565b60035460405163a9059cbb60e01b8152336004820152602481018390526001600160a01b039091169063a9059cbb906044016020604051808303816000875af1158015611676573d6000803e3d6000fd5b505050506040513d601f19601f8201168201806040525081019061169a919061235d565b5033600081815260016020818152604080842084815590920192909255805184815242928101929092527f34fcbac0073d7c3d388e51312faf357774904998eeb8fca628b9e6f65ee1cbf7910160405180910390a250565b6013546001600160a01b031633148061171557506014546001600160a01b031633145b8061172a57506015546001600160a01b031633145b61176c5760405162461bcd60e51b815260206004820152601360248201527231b0b63632b91034b9903737ba1030b236b4b760691b604482015260640161090e565b600f5442116117b35760405162461bcd60e51b81526020600482015260136024820152721c1c9a5d985d19481cd85b19481c195c9a5bd9606a1b604482015260640161090e565b60006117bd611f5d565b60035460405163a9059cbb60e01b815261dead6004820152602481018390529192506001600160a01b03169063a9059cbb906044016020604051808303816000875af1158015611811573d6000803e3d6000fd5b505050506040513d601f19601f82011682018060405250810190611835919061235d565b5050565b6016546001600160a01b031633146118635760405162461bcd60e51b815260040161090e906122e8565b600d55565b6000600d54421015801561187d5750600e5442105b156118885750600190565b600e54421015801561189b5750600f5442105b156118a65750600290565b50600090565b6012546001600160a01b031633146119065760405162461bcd60e51b815260206004820152601a60248201527f63616c6c6572206973206e6f74206d61726b657457616c6c6574000000000000604482015260640161090e565b601280546001600160a01b0319166001600160a01b0392909216919091179055565b6016546001600160a01b031633146119525760405162461bcd60e51b815260040161090e906122e8565b600480546001600160a01b0319166001600160a01b0392909216919091179055565b6016546001600160a01b0316331461199e5760405162461bcd60e51b815260040161090e906122e8565b600f55565b6016546001600160a01b031633146119cd5760405162461bcd60e51b815260040161090e906122e8565b600555565b6016546001600160a01b031633146119fc5760405162461bcd60e51b815260040161090e906122e8565b600655565b600080600260009054906101000a90046001600160a01b03166001600160a01b031663feaf968c6040518163ffffffff1660e01b815260040160a060405180830381865afa158015611a57573d6000803e3d6000fd5b505050506040513d601f19601f82011682018060405250810190611a7b919061239e565b509195945050505050565b6016546001600160a01b03163314611ab05760405162461bcd60e51b815260040161090e906122e8565b601680546001600160a01b0319166001600160a01b0392909216919091179055565b6016546001600160a01b03163314611afc5760405162461bcd60e51b815260040161090e906122e8565b600855565b6013546001600160a01b03163314611b5b5760405162461bcd60e51b815260206004820152601760248201527f63616c6c6572206973206e6f7420636657616c6c657431000000000000000000604482015260640161090e565b601380546001600160a01b0319166001600160a01b0392909216919091179055565b600080611b8983611e74565b9050600068056bc75e2d63100000611ba185846122a7565b611bab91906122c6565b949350505050565b6000611bbd611868565b60ff1611611c055760405162461bcd60e51b8152602060048201526015602482015274139bdd081d985b1a59081cd85b19481c195c9a5bd9605a1b604482015260640161090e565b60008111611c4d5760405162461bcd60e51b8152602060048201526015602482015274616d6f756e742063616e6e6f74206265207a65726f60581b604482015260640161090e565b600480546040516370a0823160e01b8152339281019290925282916001600160a01b03909116906370a0823190602401602060405180830381865afa158015611c9a573d6000803e3d6000fd5b505050506040513d601f19601f82011682018060405250810190611cbe9190612344565b1015611d165760405162461bcd60e51b815260206004820152602160248201527f596f757220555344542062616c616e636520697320696e73756666696369656e6044820152601d60fa1b606482015260840161090e565b6000611d2183611e74565b905060008111611d695760405162461bcd60e51b8152602060048201526013602482015272496e76616c696420746f6b656e20707269636560681b604482015260640161090e565b68056bc75e2d63100000611d7d84836122a7565b611d8791906122c6565b821015611da65760405162461bcd60e51b815260040161090e90612318565b600480546040516323b872dd60e01b81523392810192909252306024830152604482018490526001600160a01b0316906323b872dd906064016020604051808303816000875af1158015611dfe573d6000803e3d6000fd5b505050506040513d601f19601f82011682018060405250810190611e22919061235d565b50611e2d833361207a565b60408051600281526020810184905290810184905242606082015233907fe8f58e3faf4cfb9e9f5bb8a5bb97dc5c362e97b4665aec0f218f17c3c44a5b6e90608001610ba8565b600080611e7f611868565b9050600954670de0b6b3a7640000611e9791906122a7565b8310158015611eba5750600a54611eb690670de0b6b3a76400006122a7565b8311155b15611eee578060ff16600103611ed4575050600554919050565b8060ff16600203611ee9575050600754919050565b611f54565b600a54611f0390670de0b6b3a76400006122a7565b83118015611f255750600b54611f2190670de0b6b3a76400006122a7565b8311155b15611f54578060ff16600103611f3f575050600654919050565b8060ff16600203611f54575050600854919050565b50600092915050565b6003546040516370a0823160e01b81523060048201526000916001600160a01b0316906370a0823190602401602060405180830381865afa158015611fa6573d6000803e3d6000fd5b505050506040513d601f19601f82011682018060405250810190611fca9190612344565b905090565b6014546001600160a01b031633146120295760405162461bcd60e51b815260206004820152601760248201527f63616c6c6572206973206e6f7420636657616c6c657432000000000000000000604482015260640161090e565b601480546001600160a01b0319166001600160a01b0392909216919091179055565b6016546001600160a01b031633146120755760405162461bcd60e51b815260040161090e906122e8565b600e55565b6001600160a01b038116600090815260016020526040902054156120d95760405162461bcd60e51b8152602060048201526016602482015275596f7527766520616c726561647920626f756768742160501b604482015260640161090e565b6000821161213d5760405162461bcd60e51b815260206004820152602b60248201527f54686520657374696d6174656420746f6b656e20616d6f756e7420636f756c6460448201526a6e2774206265207a65726f60a81b606482015260840161090e565b600054612148611f5d565b61215291906123ee565b8211156121ab5760405162461bcd60e51b815260206004820152602160248201527f496e73756666696369656e742072656d61696e20746f6b656e2062616c616e636044820152606560f81b606482015260840161090e565b6001600160a01b0381166000908152600160205260409020829055600c546121d690622819bd6122a7565b6121e09042612405565b6001600160a01b03821660009081526001602081905260408220019190915580548391908190612211908490612405565b90915550505050565b60006020828403121561222c57600080fd5b5035919050565b6001600160a01b038116811461224857600080fd5b50565b60006020828403121561225d57600080fd5b813561226881612233565b9392505050565b6000806040838503121561228257600080fd5b50508035926020909101359150565b634e487b7160e01b600052601160045260246000fd5b60008160001904831182151516156122c1576122c1612291565b500290565b6000826122e357634e487b7160e01b600052601260045260246000fd5b500490565b60208082526016908201527531b0b63632b91034b9903737ba103232b83637bcb2b960511b604082015260600190565b602080825260129082015271496e73756666696369656e742076616c756560701b604082015260600190565b60006020828403121561235657600080fd5b5051919050565b60006020828403121561236f57600080fd5b8151801515811461226857600080fd5b805169ffffffffffffffffffff8116811461239957600080fd5b919050565b600080600080600060a086880312156123b657600080fd5b6123bf8661237f565b94506020860151935060408601519250606086015191506123e26080870161237f565b90509295509295909350565b60008282101561240057612400612291565b500390565b6000821982111561241857612418612291565b50019056fea2646970667358221220add7eff917f6f9a2dca78d67ab659ce03f0ea0c4293e44adc86c21f75d9e3c5964736f6c634300080d0033",
    "linkReferences": {},
    "deployedLinkReferences": {}
}