{
  "_format": "hh-sol-artifact-1",
  "contractName": "Presale",
  "sourceName": "contracts/Presale.sol",
  "abi": [
    {
      "inputs": [
        {
          "internalType": "address",
          "name": "_tokenAddr",
          "type": "address"
        },
        {
          "internalType": "address",
          "name": "_usdtAddr",
          "type": "address"
        },
        {
          "internalType": "address",
          "name": "_priceFeedAddr",
          "type": "address"
        }
      ],
      "stateMutability": "nonpayable",
      "type": "constructor"
    },
    {
      "anonymous": false,
      "inputs": [
        {
          "indexed": true,
          "internalType": "address",
          "name": "caller",
          "type": "address"
        },
        {
          "indexed": false,
          "internalType": "uint8",
          "name": "paymentType",
          "type": "uint8"
        },
        {
          "indexed": false,
          "internalType": "uint256",
          "name": "paidAmount",
          "type": "uint256"
        },
        {
          "indexed": false,
          "internalType": "uint256",
          "name": "tokenAmount",
          "type": "uint256"
        },
        {
          "indexed": false,
          "internalType": "uint256",
          "name": "buyDate",
          "type": "uint256"
        }
      ],
      "name": "Buy",
      "type": "event"
    },
    {
      "anonymous": false,
      "inputs": [
        {
          "indexed": true,
          "internalType": "address",
          "name": "caller",
          "type": "address"
        },
        {
          "indexed": false,
          "internalType": "uint256",
          "name": "tokenAmount",
          "type": "uint256"
        },
        {
          "indexed": false,
          "internalType": "uint256",
          "name": "claimDate",
          "type": "uint256"
        }
      ],
      "name": "Claim",
      "type": "event"
    },
    {
      "inputs": [],
      "name": "LOCKING_PERIOD",
      "outputs": [
        {
          "internalType": "uint256",
          "name": "",
          "type": "uint256"
        }
      ],
      "stateMutability": "view",
      "type": "function"
    },
    {
      "inputs": [],
      "name": "ROUND1_MIN_AMOUNT",
      "outputs": [
        {
          "internalType": "uint256",
          "name": "",
          "type": "uint256"
        }
      ],
      "stateMutability": "view",
      "type": "function"
    },
    {
      "inputs": [],
      "name": "ROUND2_MAX_AMOUNT",
      "outputs": [
        {
          "internalType": "uint256",
          "name": "",
          "type": "uint256"
        }
      ],
      "stateMutability": "view",
      "type": "function"
    },
    {
      "inputs": [],
      "name": "ROUND2_MIN_AMOUNT",
      "outputs": [
        {
          "internalType": "uint256",
          "name": "",
          "type": "uint256"
        }
      ],
      "stateMutability": "view",
      "type": "function"
    },
    {
      "inputs": [],
      "name": "_getTokenBalance",
      "outputs": [
        {
          "internalType": "uint256",
          "name": "",
          "type": "uint256"
        }
      ],
      "stateMutability": "view",
      "type": "function"
    },
    {
      "inputs": [],
      "name": "burn",
      "outputs": [],
      "stateMutability": "nonpayable",
      "type": "function"
    },
    {
      "inputs": [
        {
          "internalType": "uint256",
          "name": "_amount",
          "type": "uint256"
        }
      ],
      "name": "buyTokenWithMatic",
      "outputs": [],
      "stateMutability": "payable",
      "type": "function"
    },
    {
      "inputs": [
        {
          "internalType": "uint256",
          "name": "_amount",
          "type": "uint256"
        }
      ],
      "name": "buyTokenWithUSDT",
      "outputs": [],
      "stateMutability": "nonpayable",
      "type": "function"
    },
    {
      "inputs": [],
      "name": "cfWallet1",
      "outputs": [
        {
          "internalType": "address payable",
          "name": "",
          "type": "address"
        }
      ],
      "stateMutability": "view",
      "type": "function"
    },
    {
      "inputs": [],
      "name": "cfWallet2",
      "outputs": [
        {
          "internalType": "address payable",
          "name": "",
          "type": "address"
        }
      ],
      "stateMutability": "view",
      "type": "function"
    },
    {
      "inputs": [],
      "name": "cfWallet3",
      "outputs": [
        {
          "internalType": "address payable",
          "name": "",
          "type": "address"
        }
      ],
      "stateMutability": "view",
      "type": "function"
    },
    {
      "inputs": [],
      "name": "claimToken",
      "outputs": [],
      "stateMutability": "nonpayable",
      "type": "function"
    },
    {
      "inputs": [],
      "name": "deployer",
      "outputs": [
        {
          "internalType": "address",
          "name": "",
          "type": "address"
        }
      ],
      "stateMutability": "view",
      "type": "function"
    },
    {
      "inputs": [],
      "name": "devWallet",
      "outputs": [
        {
          "internalType": "address payable",
          "name": "",
          "type": "address"
        }
      ],
      "stateMutability": "view",
      "type": "function"
    },
    {
      "inputs": [
        {
          "internalType": "uint256",
          "name": "_amount",
          "type": "uint256"
        }
      ],
      "name": "estimatedMaticAmount",
      "outputs": [
        {
          "internalType": "uint256",
          "name": "",
          "type": "uint256"
        }
      ],
      "stateMutability": "view",
      "type": "function"
    },
    {
      "inputs": [
        {
          "internalType": "uint256",
          "name": "_amount",
          "type": "uint256"
        }
      ],
      "name": "estimatedUSDTAmount",
      "outputs": [
        {
          "internalType": "uint256",
          "name": "",
          "type": "uint256"
        }
      ],
      "stateMutability": "view",
      "type": "function"
    },
    {
      "inputs": [],
      "name": "getLatestPrice",
      "outputs": [
        {
          "internalType": "int256",
          "name": "",
          "type": "int256"
        }
      ],
      "stateMutability": "view",
      "type": "function"
    },
    {
      "inputs": [],
      "name": "getSalePeriod",
      "outputs": [
        {
          "internalType": "uint8",
          "name": "",
          "type": "uint8"
        }
      ],
      "stateMutability": "view",
      "type": "function"
    },
    {
      "inputs": [],
      "name": "getTokenPrice",
      "outputs": [
        {
          "internalType": "uint256",
          "name": "",
          "type": "uint256"
        }
      ],
      "stateMutability": "view",
      "type": "function"
    },
    {
      "inputs": [
        {
          "internalType": "address",
          "name": "",
          "type": "address"
        }
      ],
      "name": "lockedTokens",
      "outputs": [
        {
          "internalType": "uint256",
          "name": "amount",
          "type": "uint256"
        },
        {
          "internalType": "uint256",
          "name": "endLockTimestamp",
          "type": "uint256"
        }
      ],
      "stateMutability": "view",
      "type": "function"
    },
    {
      "inputs": [],
      "name": "lpWallet",
      "outputs": [
        {
          "internalType": "address payable",
          "name": "",
          "type": "address"
        }
      ],
      "stateMutability": "view",
      "type": "function"
    },
    {
      "inputs": [],
      "name": "marketWallet",
      "outputs": [
        {
          "internalType": "address payable",
          "name": "",
          "type": "address"
        }
      ],
      "stateMutability": "view",
      "type": "function"
    },
    {
      "inputs": [],
      "name": "privateEndDate",
      "outputs": [
        {
          "internalType": "uint256",
          "name": "",
          "type": "uint256"
        }
      ],
      "stateMutability": "view",
      "type": "function"
    },
    {
      "inputs": [],
      "name": "privatePriceForRound1",
      "outputs": [
        {
          "internalType": "uint256",
          "name": "",
          "type": "uint256"
        }
      ],
      "stateMutability": "view",
      "type": "function"
    },
    {
      "inputs": [],
      "name": "privatePriceForRound2",
      "outputs": [
        {
          "internalType": "uint256",
          "name": "",
          "type": "uint256"
        }
      ],
      "stateMutability": "view",
      "type": "function"
    },
    {
      "inputs": [],
      "name": "seedEndDate",
      "outputs": [
        {
          "internalType": "uint256",
          "name": "",
          "type": "uint256"
        }
      ],
      "stateMutability": "view",
      "type": "function"
    },
    {
      "inputs": [],
      "name": "seedPriceForRound1",
      "outputs": [
        {
          "internalType": "uint256",
          "name": "",
          "type": "uint256"
        }
      ],
      "stateMutability": "view",
      "type": "function"
    },
    {
      "inputs": [],
      "name": "seedPriceForRound2",
      "outputs": [
        {
          "internalType": "uint256",
          "name": "",
          "type": "uint256"
        }
      ],
      "stateMutability": "view",
      "type": "function"
    },
    {
      "inputs": [],
      "name": "seedStartDate",
      "outputs": [
        {
          "internalType": "uint256",
          "name": "",
          "type": "uint256"
        }
      ],
      "stateMutability": "view",
      "type": "function"
    },
    {
      "inputs": [
        {
          "internalType": "address payable",
          "name": "_newAddress",
          "type": "address"
        }
      ],
      "name": "setCFWallet1",
      "outputs": [],
      "stateMutability": "nonpayable",
      "type": "function"
    },
    {
      "inputs": [
        {
          "internalType": "address payable",
          "name": "_newAddress",
          "type": "address"
        }
      ],
      "name": "setCFWallet2",
      "outputs": [],
      "stateMutability": "nonpayable",
      "type": "function"
    },
    {
      "inputs": [
        {
          "internalType": "address payable",
          "name": "_newAddress",
          "type": "address"
        }
      ],
      "name": "setCFWallet3",
      "outputs": [],
      "stateMutability": "nonpayable",
      "type": "function"
    },
    {
      "inputs": [
        {
          "internalType": "address",
          "name": "_newAddress",
          "type": "address"
        }
      ],
      "name": "setDeployer",
      "outputs": [],
      "stateMutability": "nonpayable",
      "type": "function"
    },
    {
      "inputs": [
        {
          "internalType": "address payable",
          "name": "_newAddress",
          "type": "address"
        }
      ],
      "name": "setDevWallet",
      "outputs": [],
      "stateMutability": "nonpayable",
      "type": "function"
    },
    {
      "inputs": [
        {
          "internalType": "address payable",
          "name": "_newAddress",
          "type": "address"
        }
      ],
      "name": "setLPWallet",
      "outputs": [],
      "stateMutability": "nonpayable",
      "type": "function"
    },
    {
      "inputs": [
        {
          "internalType": "address payable",
          "name": "_newAddress",
          "type": "address"
        }
      ],
      "name": "setMarketWallet",
      "outputs": [],
      "stateMutability": "nonpayable",
      "type": "function"
    },
    {
      "inputs": [
        {
          "internalType": "uint256",
          "name": "_newDate",
          "type": "uint256"
        }
      ],
      "name": "setPrivateEndDate",
      "outputs": [],
      "stateMutability": "nonpayable",
      "type": "function"
    },
    {
      "inputs": [
        {
          "internalType": "uint256",
          "name": "_newPrice",
          "type": "uint256"
        }
      ],
      "name": "setPrivatePriceForRound1",
      "outputs": [],
      "stateMutability": "nonpayable",
      "type": "function"
    },
    {
      "inputs": [
        {
          "internalType": "uint256",
          "name": "_newPrice",
          "type": "uint256"
        }
      ],
      "name": "setPrivatePriceForRound2",
      "outputs": [],
      "stateMutability": "nonpayable",
      "type": "function"
    },
    {
      "inputs": [
        {
          "internalType": "uint256",
          "name": "_newDate",
          "type": "uint256"
        }
      ],
      "name": "setSeedEndDate",
      "outputs": [],
      "stateMutability": "nonpayable",
      "type": "function"
    },
    {
      "inputs": [
        {
          "internalType": "uint256",
          "name": "_newPrice",
          "type": "uint256"
        }
      ],
      "name": "setSeedPriceForRound1",
      "outputs": [],
      "stateMutability": "nonpayable",
      "type": "function"
    },
    {
      "inputs": [
        {
          "internalType": "uint256",
          "name": "_newPrice",
          "type": "uint256"
        }
      ],
      "name": "setSeedPriceForRound2",
      "outputs": [],
      "stateMutability": "nonpayable",
      "type": "function"
    },
    {
      "inputs": [
        {
          "internalType": "uint256",
          "name": "_newDate",
          "type": "uint256"
        }
      ],
      "name": "setSeedStartDate",
      "outputs": [],
      "stateMutability": "nonpayable",
      "type": "function"
    },
    {
      "inputs": [
        {
          "internalType": "address",
          "name": "_newToken",
          "type": "address"
        }
      ],
      "name": "setTokenAddress",
      "outputs": [],
      "stateMutability": "nonpayable",
      "type": "function"
    },
    {
      "inputs": [
        {
          "internalType": "address",
          "name": "_newToken",
          "type": "address"
        }
      ],
      "name": "setUSDTAddress",
      "outputs": [],
      "stateMutability": "nonpayable",
      "type": "function"
    },
    {
      "inputs": [],
      "name": "tokenAddr",
      "outputs": [
        {
          "internalType": "contract IERC20",
          "name": "",
          "type": "address"
        }
      ],
      "stateMutability": "view",
      "type": "function"
    },
    {
      "inputs": [],
      "name": "totalSoldAmount",
      "outputs": [
        {
          "internalType": "uint256",
          "name": "",
          "type": "uint256"
        }
      ],
      "stateMutability": "view",
      "type": "function"
    },
    {
      "inputs": [],
      "name": "usdtAddr",
      "outputs": [
        {
          "internalType": "contract IERC20",
          "name": "",
          "type": "address"
        }
      ],
      "stateMutability": "view",
      "type": "function"
    },
    {
      "inputs": [],
      "name": "withdraw",
      "outputs": [],
      "stateMutability": "nonpayable",
      "type": "function"
    },
    {
      "stateMutability": "payable",
      "type": "receive"
    }
  ],
  "bytecode": "0x608060405262632ea0600555624c4b4060069081556281b320600755626acfc060085561271060095562989680600a556301312d00600b55600c556362804280600d556362fade00600e5563634b4980600f55601080546001600160a01b03199081167331db7dc50c4077aa065f5c296a766b1a6db56df21790915560118054821673b43b73b8a6e848ae82e689736e77d53e9ee0858d179055601280548216731b4942f4366794e77240a1ed935818b305c8477c17905560138054821673f98e4c178eed9313ce0856cf775ce950c08d6f3917905560148054821673d6f6c0c0270f1001fbd0583ca40cc4b7a40529b017905560158054909116736cf00e5e99e6707057a6471b2b4b803791d8f20b1790553480156200011f57600080fd5b5060405162002642380380620026428339810160408190526200014291620001af565b600380546001600160a01b039485166001600160a01b03199182161790915560048054938516938216939093179092556002805491909316908216179091556016805490911633179055620001f9565b80516001600160a01b0381168114620001aa57600080fd5b919050565b600080600060608486031215620001c557600080fd5b620001d08462000192565b9250620001e06020850162000192565b9150620001f06040850162000192565b90509250925092565b61243980620002096000396000f3fe6080604052600436106102b15760003560e01c806363074dec11610175578063b2a2b722116100dc578063d5f3948811610095578063ee4493c21161006f578063ee4493c2146107fd578063f20fb5cd1461081d578063f4de2ac51461083d578063fb6161021461085357600080fd5b8063d5f39488146107a7578063e2bf02cf146107c7578063e4440a86146107dd57600080fd5b8063b2a2b722146106fc578063b2d07e8414610712578063b79c747514610732578063bcd2f64a14610752578063bd664c1814610772578063d12a039c1461079257600080fd5b80638e15f4731161012e5780638e15f4731461065b5780638ea5220f1461067057806396214735146106905780639808c2a2146106b05780639bd7abdb146106c6578063a70089e5146106dc57600080fd5b806363074dec146105b95780636bebb760146105d9578063714e7054146105f95780637b82bd9c1461060f578063873177c31461062f57806387a55daf1461064557600080fd5b80634451d89f1161021957806355eba868116101d257806355eba868146104e45780635eb7413a146105045780635fbe4d1d1461054d5780635fe383b11461056d578063617d7940146105835780636303516c1461059957600080fd5b80634451d89f1461043e57806344df8e7014610453578063459a7e9f146104685780634b94f50e1461048857806353149f561461049d57806354332266146104c457600080fd5b80631f53ac021161026b5780631f53ac02146103a057806326a4e8d2146103c05780632f213285146103e05780633ad1000d146103f65780633b0aacbc146104095780633ccfd60b1461042957600080fd5b8062231343146102bd57806305b4d1e8146102f05780630c77af6f146103285780631319e8cf1461034a5780631554e1ce1461036a57806319955ef91461038a57600080fd5b366102b857005b600080fd5b3480156102c957600080fd5b506102dd6102d836600461224e565b610873565b6040519081526020015b60405180910390f35b3480156102fc57600080fd5b50601554610310906001600160a01b031681565b6040516001600160a01b0390911681526020016102e7565b34801561033457600080fd5b5061034861034336600461227f565b6108ac565b005b34801561035657600080fd5b5061034861036536600461224e565b61092d565b34801561037657600080fd5b50600454610310906001600160a01b031681565b34801561039657600080fd5b506102dd60075481565b3480156103ac57600080fd5b506103486103bb36600461227f565b61095c565b3480156103cc57600080fd5b506103486103db36600461227f565b6109d8565b3480156103ec57600080fd5b506102dd600e5481565b61034861040436600461224e565b610a24565b34801561041557600080fd5b5061034861042436600461227f565b610bcd565b34801561043557600080fd5b50610348610c42565b34801561044a57600080fd5b50610348611542565b34801561045f57600080fd5b5061034861172f565b34801561047457600080fd5b5061034861048336600461224e565b611876565b34801561049457600080fd5b506102dd6118a5565b3480156104a957600080fd5b506104b26119a7565b60405160ff90911681526020016102e7565b3480156104d057600080fd5b506103486104df36600461227f565b6119eb565b3480156104f057600080fd5b506103486104ff36600461227f565b611a67565b34801561051057600080fd5b5061053861051f36600461227f565b6001602081905260009182526040909120805491015482565b604080519283526020830191909152016102e7565b34801561055957600080fd5b50600354610310906001600160a01b031681565b34801561057957600080fd5b506102dd60055481565b34801561058f57600080fd5b506102dd60005481565b3480156105a557600080fd5b50601054610310906001600160a01b031681565b3480156105c557600080fd5b506103486105d436600461224e565b611ab3565b3480156105e557600080fd5b506103486105f436600461224e565b611ae2565b34801561060557600080fd5b506102dd60085481565b34801561061b57600080fd5b5061034861062a36600461224e565b611b11565b34801561063b57600080fd5b506102dd60065481565b34801561065157600080fd5b506102dd600d5481565b34801561066757600080fd5b506102dd611b40565b34801561067c57600080fd5b50601154610310906001600160a01b031681565b34801561069c57600080fd5b506103486106ab36600461227f565b611bc5565b3480156106bc57600080fd5b506102dd600a5481565b3480156106d257600080fd5b506102dd600f5481565b3480156106e857600080fd5b506103486106f736600461224e565b611c11565b34801561070857600080fd5b506102dd600c5481565b34801561071e57600080fd5b5061034861072d36600461227f565b611c40565b34801561073e57600080fd5b50601454610310906001600160a01b031681565b34801561075e57600080fd5b5061034861076d36600461224e565b611cbc565b34801561077e57600080fd5b506102dd61078d36600461224e565b611f5c565b34801561079e57600080fd5b506102dd611f91565b3480156107b357600080fd5b50601654610310906001600160a01b031681565b3480156107d357600080fd5b506102dd60095481565b3480156107e957600080fd5b50601254610310906001600160a01b031681565b34801561080957600080fd5b50601354610310906001600160a01b031681565b34801561082957600080fd5b5061034861083836600461227f565b612003565b34801561084957600080fd5b506102dd600b5481565b34801561085f57600080fd5b5061034861086e36600461224e565b61207f565b60008061087e611b40565b9050600061088a6118a5565b905060008261089986846122b9565b6108a391906122d8565b95945050505050565b6015546001600160a01b0316331461090b5760405162461bcd60e51b815260206004820152601760248201527f63616c6c6572206973206e6f7420636657616c6c65743300000000000000000060448201526064015b60405180910390fd5b601580546001600160a01b0319166001600160a01b0392909216919091179055565b6016546001600160a01b031633146109575760405162461bcd60e51b8152600401610902906122fa565b600755565b6011546001600160a01b031633146109b65760405162461bcd60e51b815260206004820152601760248201527f63616c6c6572206973206e6f742064657657616c6c65740000000000000000006044820152606401610902565b601180546001600160a01b0319166001600160a01b0392909216919091179055565b6016546001600160a01b03163314610a025760405162461bcd60e51b8152600401610902906122fa565b600380546001600160a01b0319166001600160a01b0392909216919091179055565b6000610a2e6119a7565b60ff1611610a765760405162461bcd60e51b8152602060048201526015602482015274139bdd081d985b1a59081cd85b19481c195c9a5bd9605a1b6044820152606401610902565b60003411610abd5760405162461bcd60e51b815260206004820152601460248201527356616c75652063616e6e6f74206265207a65726f60601b6044820152606401610902565b6000610ac7611b40565b90506000610ad36118a5565b905060008111610b1b5760405162461bcd60e51b8152602060048201526013602482015272496e76616c696420746f6b656e20707269636560681b6044820152606401610902565b81610b2684836122b9565b610b3091906122d8565b341015610b745760405162461bcd60e51b8152602060048201526012602482015271496e73756666696369656e742076616c756560701b6044820152606401610902565b610b7e83336120ae565b604080516001815234602082015290810184905242606082015233907fe8f58e3faf4cfb9e9f5bb8a5bb97dc5c362e97b4665aec0f218f17c3c44a5b6e906080015b60405180910390a2505050565b6010546001600160a01b03163314610c205760405162461bcd60e51b815260206004820152601660248201527518d85b1b195c881a5cc81b9bdd081b1c15d85b1b195d60521b6044820152606401610902565b601080546001600160a01b0319166001600160a01b0392909216919091179055565b6013546001600160a01b0316331480610c6557506014546001600160a01b031633145b80610c7a57506015546001600160a01b031633145b610cbc5760405162461bcd60e51b815260206004820152601360248201527231b0b63632b91034b9903737ba1030b236b4b760691b6044820152606401610902565b60006064610ccb4760326122b9565b610cd591906122d8565b905060006064610ce64760206122b9565b610cf091906122d8565b905060006103e8610d024760376122b9565b610d0c91906122d8565b905060006103e8610d1e4760376122b9565b610d2891906122d8565b90506000610d376064476122d8565b905060006064610d484760066122b9565b610d5291906122d8565b90508515610d96576010546040516001600160a01b039091169087156108fc029088906000818181858888f19350505050158015610d94573d6000803e3d6000fd5b505b8415610dd8576011546040516001600160a01b039091169086156108fc029087906000818181858888f19350505050158015610dd6573d6000803e3d6000fd5b505b8315610e1a576013546040516001600160a01b039091169085156108fc029086906000818181858888f19350505050158015610e18573d6000803e3d6000fd5b505b8215610e5c576014546040516001600160a01b039091169084156108fc029085906000818181858888f19350505050158015610e5a573d6000803e3d6000fd5b505b8115610e9e576015546040516001600160a01b039091169083156108fc029084906000818181858888f19350505050158015610e9c573d6000803e3d6000fd5b505b8015610ee0576012546040516001600160a01b039091169082156108fc029083906000818181858888f19350505050158015610ede573d6000803e3d6000fd5b505b600480546040516370a0823160e01b815230928101929092526000916064916001600160a01b0316906370a0823190602401602060405180830381865afa158015610f2f573d6000803e3d6000fd5b505050506040513d601f19601f82011682018060405250810190610f53919061232a565b610f5e9060326122b9565b610f6891906122d8565b600480546040516370a0823160e01b815230928101929092529192506000916064916001600160a01b03909116906370a0823190602401602060405180830381865afa158015610fbc573d6000803e3d6000fd5b505050506040513d601f19601f82011682018060405250810190610fe0919061232a565b610feb9060206122b9565b610ff591906122d8565b600480546040516370a0823160e01b815230928101929092529192506000916103e8916001600160a01b03909116906370a0823190602401602060405180830381865afa15801561104a573d6000803e3d6000fd5b505050506040513d601f19601f8201168201806040525081019061106e919061232a565b6110799060376122b9565b61108391906122d8565b600480546040516370a0823160e01b815230928101929092529192506000916103e8916001600160a01b03909116906370a0823190602401602060405180830381865afa1580156110d8573d6000803e3d6000fd5b505050506040513d601f19601f820116820180604052508101906110fc919061232a565b6111079060376122b9565b61111191906122d8565b600480546040516370a0823160e01b815230928101929092529192506000916064916001600160a01b03909116906370a0823190602401602060405180830381865afa158015611165573d6000803e3d6000fd5b505050506040513d601f19601f82011682018060405250810190611189919061232a565b61119391906122d8565b600480546040516370a0823160e01b815230928101929092529192506000916064916001600160a01b03909116906370a0823190602401602060405180830381865afa1580156111e7573d6000803e3d6000fd5b505050506040513d601f19601f8201168201806040525081019061120b919061232a565b6112169060066122b9565b61122091906122d8565b905085156112a5576004805460105460405163a9059cbb60e01b81526001600160a01b039182169381019390935260248301899052169063a9059cbb906044016020604051808303816000875af115801561127f573d6000803e3d6000fd5b505050506040513d601f19601f820116820180604052508101906112a39190612343565b505b8415611328576004805460115460405163a9059cbb60e01b81526001600160a01b039182169381019390935260248301889052169063a9059cbb906044016020604051808303816000875af1158015611302573d6000803e3d6000fd5b505050506040513d601f19601f820116820180604052508101906113269190612343565b505b83156113ab576004805460135460405163a9059cbb60e01b81526001600160a01b039182169381019390935260248301879052169063a9059cbb906044016020604051808303816000875af1158015611385573d6000803e3d6000fd5b505050506040513d601f19601f820116820180604052508101906113a99190612343565b505b821561142e576004805460145460405163a9059cbb60e01b81526001600160a01b039182169381019390935260248301869052169063a9059cbb906044016020604051808303816000875af1158015611408573d6000803e3d6000fd5b505050506040513d601f19601f8201168201806040525081019061142c9190612343565b505b81156114b1576004805460155460405163a9059cbb60e01b81526001600160a01b039182169381019390935260248301859052169063a9059cbb906044016020604051808303816000875af115801561148b573d6000803e3d6000fd5b505050506040513d601f19601f820116820180604052508101906114af9190612343565b505b8015611534576004805460125460405163a9059cbb60e01b81526001600160a01b039182169381019390935260248301849052169063a9059cbb906044016020604051808303816000875af115801561150e573d6000803e3d6000fd5b505050506040513d601f19601f820116820180604052508101906115329190612343565b505b505050505050505050505050565b33600090815260016020819052604090912001544210156115b35760405162461bcd60e51b815260206004820152602560248201527f4c6f636b20706572696f642836204d6f6e746873292069736e277420656e646560448201526419081e595d60da1b6064820152608401610902565b336000908152600160205260409020546116045760405162461bcd60e51b8152602060048201526012602482015271496e73756666696369656e742076616c756560701b6044820152606401610902565b336000908152600160205260409020548061161d611f91565b10156116625760405162461bcd60e51b8152602060048201526014602482015273496e73756666696369656e742062616c616e636560601b6044820152606401610902565b60035460405163a9059cbb60e01b8152336004820152602481018390526001600160a01b039091169063a9059cbb906044016020604051808303816000875af11580156116b3573d6000803e3d6000fd5b505050506040513d601f19601f820116820180604052508101906116d79190612343565b5033600081815260016020818152604080842084815590920192909255805184815242928101929092527f34fcbac0073d7c3d388e51312faf357774904998eeb8fca628b9e6f65ee1cbf7910160405180910390a250565b6013546001600160a01b031633148061175257506014546001600160a01b031633145b8061176757506015546001600160a01b031633145b6117a95760405162461bcd60e51b815260206004820152601360248201527231b0b63632b91034b9903737ba1030b236b4b760691b6044820152606401610902565b600f5442116117f05760405162461bcd60e51b81526020600482015260136024820152721c1c9a5d985d19481cd85b19481c195c9a5bd9606a1b6044820152606401610902565b60006117fa611f91565b60035460405163a9059cbb60e01b815261dead6004820152602481018390529192506001600160a01b03169063a9059cbb906044016020604051808303816000875af115801561184e573d6000803e3d6000fd5b505050506040513d601f19601f820116820180604052508101906118729190612343565b5050565b6016546001600160a01b031633146118a05760405162461bcd60e51b8152600401610902906122fa565b600d55565b6000806000546118b3611f91565b6118bd9190612365565b905060006118c96119a7565b9050600954670de0b6b3a76400006118e191906122b9565b82101580156119045750600a5461190090670de0b6b3a76400006122b9565b8211155b15611938578060ff1660010361191e576005549250505090565b8060ff16600203611933576007549250505090565b61199e565b600a5461194d90670de0b6b3a76400006122b9565b8211801561196f5750600b5461196b90670de0b6b3a76400006122b9565b8211155b1561199e578060ff16600103611989576006549250505090565b8060ff1660020361199e576008549250505090565b60009250505090565b6000600d5442101580156119bc5750600e5442105b156119c75750600190565b600e5442101580156119da5750600f5442105b156119e55750600290565b50600090565b6012546001600160a01b03163314611a455760405162461bcd60e51b815260206004820152601a60248201527f63616c6c6572206973206e6f74206d61726b657457616c6c65740000000000006044820152606401610902565b601280546001600160a01b0319166001600160a01b0392909216919091179055565b6016546001600160a01b03163314611a915760405162461bcd60e51b8152600401610902906122fa565b600480546001600160a01b0319166001600160a01b0392909216919091179055565b6016546001600160a01b03163314611add5760405162461bcd60e51b8152600401610902906122fa565b600f55565b6016546001600160a01b03163314611b0c5760405162461bcd60e51b8152600401610902906122fa565b600555565b6016546001600160a01b03163314611b3b5760405162461bcd60e51b8152600401610902906122fa565b600655565b600080600260009054906101000a90046001600160a01b03166001600160a01b031663feaf968c6040518163ffffffff1660e01b815260040160a060405180830381865afa158015611b96573d6000803e3d6000fd5b505050506040513d601f19601f82011682018060405250810190611bba919061239b565b509195945050505050565b6016546001600160a01b03163314611bef5760405162461bcd60e51b8152600401610902906122fa565b601680546001600160a01b0319166001600160a01b0392909216919091179055565b6016546001600160a01b03163314611c3b5760405162461bcd60e51b8152600401610902906122fa565b600855565b6013546001600160a01b03163314611c9a5760405162461bcd60e51b815260206004820152601760248201527f63616c6c6572206973206e6f7420636657616c6c6574310000000000000000006044820152606401610902565b601380546001600160a01b0319166001600160a01b0392909216919091179055565b6000611cc66119a7565b60ff1611611d0e5760405162461bcd60e51b8152602060048201526015602482015274139bdd081d985b1a59081cd85b19481c195c9a5bd9605a1b6044820152606401610902565b6000611d186118a5565b905060008111611d605760405162461bcd60e51b8152602060048201526013602482015272496e76616c696420746f6b656e20707269636560681b6044820152606401610902565b600068056bc75e2d63100000611d7684846122b9565b611d8091906122d8565b905060008111611dc55760405162461bcd60e51b815260206004820152601060248201526f139bdd081d985b1a5908185b5bdd5b9d60821b6044820152606401610902565b600480546040516370a0823160e01b8152339281019290925282916001600160a01b03909116906370a0823190602401602060405180830381865afa158015611e12573d6000803e3d6000fd5b505050506040513d601f19601f82011682018060405250810190611e36919061232a565b1015611e8e5760405162461bcd60e51b815260206004820152602160248201527f596f757220555344542062616c616e636520697320696e73756666696369656e6044820152601d60fa1b6064820152608401610902565b600480546040516323b872dd60e01b81523392810192909252306024830152604482018390526001600160a01b0316906323b872dd906064016020604051808303816000875af1158015611ee6573d6000803e3d6000fd5b505050506040513d601f19601f82011682018060405250810190611f0a9190612343565b50611f1583336120ae565b60408051600281526020810183905290810184905242606082015233907fe8f58e3faf4cfb9e9f5bb8a5bb97dc5c362e97b4665aec0f218f17c3c44a5b6e90608001610bc0565b600080611f676118a5565b9050600068056bc75e2d63100000611f7f85846122b9565b611f8991906122d8565b949350505050565b6003546040516370a0823160e01b81523060048201526000916001600160a01b0316906370a0823190602401602060405180830381865afa158015611fda573d6000803e3d6000fd5b505050506040513d601f19601f82011682018060405250810190611ffe919061232a565b905090565b6014546001600160a01b0316331461205d5760405162461bcd60e51b815260206004820152601760248201527f63616c6c6572206973206e6f7420636657616c6c6574320000000000000000006044820152606401610902565b601480546001600160a01b0319166001600160a01b0392909216919091179055565b6016546001600160a01b031633146120a95760405162461bcd60e51b8152600401610902906122fa565b600e55565b6001600160a01b0381166000908152600160205260409020541561210d5760405162461bcd60e51b8152602060048201526016602482015275596f7527766520616c726561647920626f756768742160501b6044820152606401610902565b600082116121715760405162461bcd60e51b815260206004820152602b60248201527f54686520657374696d6174656420746f6b656e20616d6f756e7420636f756c6460448201526a6e2774206265207a65726f60a81b6064820152608401610902565b60005461217c611f91565b6121869190612365565b8211156121df5760405162461bcd60e51b815260206004820152602160248201527f496e73756666696369656e742072656d61696e20746f6b656e2062616c616e636044820152606560f81b6064820152608401610902565b6001600160a01b0381166000908152600160205260409020829055600c5461220a90622819bd6122b9565b61221490426123eb565b6001600160a01b038216600090815260016020819052604082200191909155805483919081906122459084906123eb565b90915550505050565b60006020828403121561226057600080fd5b5035919050565b6001600160a01b038116811461227c57600080fd5b50565b60006020828403121561229157600080fd5b813561229c81612267565b9392505050565b634e487b7160e01b600052601160045260246000fd5b60008160001904831182151516156122d3576122d36122a3565b500290565b6000826122f557634e487b7160e01b600052601260045260246000fd5b500490565b60208082526016908201527531b0b63632b91034b9903737ba103232b83637bcb2b960511b604082015260600190565b60006020828403121561233c57600080fd5b5051919050565b60006020828403121561235557600080fd5b8151801515811461229c57600080fd5b600082821015612377576123776122a3565b500390565b805169ffffffffffffffffffff8116811461239657600080fd5b919050565b600080600080600060a086880312156123b357600080fd5b6123bc8661237c565b94506020860151935060408601519250606086015191506123df6080870161237c565b90509295509295909350565b600082198211156123fe576123fe6122a3565b50019056fea26469706673582212202222a2f1e01435238ef7e3a82b6f065a304c8574fd6b36c4a40f6b091dcfe71664736f6c634300080d0033",
  "linkReferences": {},
  "deployedLinkReferences": {}
}